:100000007EC1000098C1000096C1000094C10000AC
:1000100092C1000090C100008EC100008CC10000A0
:100020008AC1000088C1000086C1000084C10000B0
:1000300082C1000018C20000B9C40000E0C4000082
:1000400007C500002EC5000055C500007CC5000096
:10005000A3C50000CAC50000F1C5000018C6000015
:100060006AC1000068C1000066C1000064C10000F0
:1000700062C1000060C100005EC100005CC1000000
:100080005AC1000058C1000056C1000054C1000010
:1000900052C1000050C100004EC100004CC1000020
:1000A0004AC1000048C1000046C1000044C1000030
:1000B00042C1000040C10000F9C10000ABC7000010
:1000C000D2C70000F9C700000C9485080C94AE0854
:1000D0000C94D70830C100002EC100002CC10000D4
:1000E0002AC1000028C1000026C1000024C1000070
:1000F00022C1000020C100001EC100001CC1000080
:100100001AC1000018C1000016C1000014C100008F
:1001100012C1000010C100000EC100000CC100009F
:100120000AC1000008C1000006C1000004C10000AF
:1001300002C10000D5C50000FCC5000023C60000B8
:100140004AC6000071C6000098C60000BFC6000085
:10015000E6C600000DC7000034C70000ECC0000078
:10016000EAC00000E8C00000E6C00000E4C00000F3
:10017000E2C00000E0C00000DEC00000DCC0000003
:10018000DAC00000D8C00000D6C00000D4C0000013
:10019000D2C00000D0C00000CEC00000CCC0000023
:1001A000CAC00000C8C00000C6C00000C4C0000033
:1001B000C2C00000C0C00000BEC00000BCC0000043
:1001C000BAC00000B8C00000B6C00000B4C0000053
:1001D000B2C00000B0C00000AEC00000ACC0000063
:1001E000AAC00000A8C00000A6C00000A4C0000073
:1001F000A2C00000A0C000009EC000006E616E00A2
:10020000696E660000407A10F35A00A0724E180919
:100210000010A5D4E80000E87648170000E40B546D
:10022000020000CA9A3B000000E1F505000080963C
:100230009800000040420F000000A086010000006E
:10024000102700000000E803000000006400000028
:1002500000000A00000000000100000000002C76F1
:10026000D888DC674F0823DFC1DFAE59E1B1B7960C
:10027000E5E3E453C63AE651997696E8E6C2842669
:10028000EB898C9B62ED407C6FFCEFBC9C9F40F245
:10029000BAA56FA5F490055A2AF75C936B6CF967C1
:1002A0006DC11BFCE0E40D47FEF520E6B500D0ED86
:1002B000902E0300943577050080841E08000020EE
:1002C0004E0A000000C80C333333330F986E12838C
:1002D0001141EF8D2114893BE65516CFFEE6DB1860
:1002E000D1844B381BF77C1D901DA4BBE424203225
:1002F00084725E228100C9F124ECA1E53D2711241E
:100300001FBECFEFCDBFDFE2DEBF12E2A0E0B0E262
:10031000EAEBFCE102C005900D92A030B107D9F7DD
:1003200022E2A0E0B2E201C01D92A134B207E1F7DF
:1003300067D70C945B0E64CECF93DF93E0910022DD
:10034000F0910122848183FF08C08860848383E068
:10035000838386EF80930A2283C0982F947131F0B3
:1003600083E083838FEF80930A227AC086FF43C0A5
:10037000C0E0D2E2AA81BB818C819D8114962D912F
:100380003C911597821793076CF49C012F5F3F4FA8
:100390002093042230930522A80FB91F11968C9147
:1003A00087835EC0809106229091072218962D9136
:1003B0003C91199782179307C8F4209108222223B1
:1003C00021F08681816086834BC016962D913C91E9
:1003D0001797AC014F5F5F4F40930622509307225F
:1003E000D901A80FB91F8C9187833AC083E083831A
:1003F00010920A2235C0882384F5A0E0B2E212965A
:10040000CD91DC91139716968D919C911797288525
:10041000398582179307D8F46E817F819C012F5F05
:100420003F4F20930622309307224781DB01A80F1C
:10043000B91F4C93888599852817390718F482E0ED
:1004400083830EC087E0838310920A2209C083E071
:10045000838389EF80930A2203C08BEF80930A2263
:10046000DF91CF9108951F920F920FB60F92112432
:100470002F933F934F935F936F937F938F939F93AC
:10048000AF93BF93EF93FF9357DFFF91EF91BF912E
:10049000AF919F918F917F916F915F914F913F911C
:1004A0002F910F900FBE0F901F9018951F920F92D3
:1004B0000FB60F9211242F933F934F935F936F9337
:1004C0007F938F939F93AF93BF93EF93FF9334DF0B
:1004D000FF91EF91BF91AF919F918F917F916F911C
:1004E0005F914F913F912F910F900FBE0F901F90F2
:1004F0001895FC01DB0114968C91858388EB818330
:1005000081E08483E0E0F2E211861286E0EAF0E026
:10051000828182608283789480E00895CF93DF9314
:100520001F92CDB7DEB7DC01892B09F44BC06115F2
:10053000710509F449C0FB01928580910922882345
:1005400019F09923F1F342C08FB78983F894898118
:10055000E0E0F2E291E0918790E892878FBFA0837C
:10056000B183628373831482158216821782408757
:10057000FB018081880F24813581232B11F44111E7
:1005800003C016968C9303C0816016968C93E0E0AE
:10059000F2E282858038E9F3E0910022F0910122B5
:1005A00084818370813049F0A0E0B2E2ED91FC914A
:1005B0001197848183708130C9F7E0E0F2E282858F
:1005C000118605C088EF03C088EF01C086EF0F9049
:1005D000DF91CF910895CF93DF93CDB7DEB72B97FF
:1005E000CDBFDEBFFE0131969BE0DF011D929A95E3
:1005F000E9F79CE399838A8381E090E08D839E8371
:1006000040E0BE016F5F7F4F80E894E087DF81119B
:10061000F7CF2B96CDBFDEBFDF91CF910895CF935B
:10062000DF93CDB7DEB72B97CDBFDEBFFE0131968E
:100630009BE0DF011D929A95E9F79CE399838A83F9
:100640006B8382E090E08D839E8340E0BE016F5F0C
:100650007F4F80E894E062DF8111F7CF2B96CDBF0A
:10066000DEBFDF91CF910895CF93DF93CDB7DEB793
:100670002B97CDBFDEBFFE0131969BE0DF011D92BF
:100680009A95E9F79DE399838A8381E090E08D83D1
:100690009E8340E0BE016F5F7F4F80E894E03EDFC5
:1006A0008111F7CF2B96CDBFDEBFDF91CF9108959B
:1006B000CF93DF93D82FC62F982F9095892F8370D3
:1006C000806B89DF8C2F8F7086DF8C2F82958F70E7
:1006D000806181DFD0934022C0933F22DF91CF9190
:1006E0000895CF93DF93D0E060E08D2FE1DFC0E08D
:1006F00080E0BADFCF5FC038D9F7DF5FD830A1F72D
:1007000060E080E0D5DFDF91CF9108950F931F93D4
:10071000CF93DF938C0180913F228A5F80933F22A9
:100720008B3770F0809140228F5F843018F4809373
:10073000402202C01092402260E080914022B8DF47
:10074000C80180978D36910510F00FE310E000523C
:100750001109C801880F991F880F991F080F191FC9
:10076000E801C05FDF4D0B5E1F4D299198E080E0EE
:10077000880F322F3170830F26959150C9F774DF9F
:10078000C017D10791F780E06FDFDF91CF911F9104
:100790000F910895CF93DF93EC018881882341F076
:1007A0002196082E000C990BB1DF89918111F9CFA8
:1007B000DF91CF91089582EE0EDF2FEF89EF90E069
:1007C000215080409040E1F700C000008BEE03DF35
:1007D0006CED81E824DF8FEAFEDE83DF60E080E0FD
:1007E00067CF08950F931F93CF93DF93CDB7DEB7F5
:1007F0002C97CDBFDEBF9F938F937F936F9387E03E
:1008000090E29F938F938E010F5F1F4F1F930F9363
:100810000E94DD0DC801BEDFCDBFDEBF2C96CDBF6F
:10082000DEBFDF91CF911F910F910895CF93DF939A
:1008300000D01F92CDB7DEB78FEF8093700080930A
:100840007100809372008093730080937400809392
:100850007500809376008091510084FD22C08091C4
:10086000510083FD0FC0E0E5F0E080EC82838FB79C
:100870008983F89499818081886080839FBF81817A
:1008800083FFFDCF8FB78A83F8949A81E0E5F0E08B
:1008900082EC85838081806180839FBF818184FF1A
:1008A000FDCF64E080E490E07BD08FB78B83F89439
:1008B0009B81E0E5F0E080818E7F80839FBF23965F
:1008C000CDBFDEBFDF91CF910895CF93DF931F920D
:1008D000CDB7DEB79FB79983F8949981E82FF0E000
:1008E000E059FF4F60958081682360839FBF0F9020
:1008F000DF91CF910895E0EEF7E091E09183968348
:10090000E0E8F6E09183968382E081838683E0E6E7
:10091000F6E081838683E0E2F6E09283958382832A
:10092000858384E08283858388E08283858308953C
:100930000F931F93CF93DF93CDB7DEB72997CDBF2A
:10094000DEBF8E010F5F1F4F89E0F80111928A957B
:10095000E9F780E593ECA0E0B0E089839A83AB836C
:10096000BC838BE391E0A0E0B0E08D839E83AF83F6
:10097000B88760E483E0A9DFB80180E894E0B9DDDE
:10098000E0E8F4E08181886081832996CDBFDEBFF5
:10099000DF91CF911F910F910895ADDFC9CF0895D9
:1009A0001BBEFC0128ED24BF608308951F920F92A7
:1009B0000FB60F9211242F933F934F935F936F9332
:1009C0007F938F939F93AF93BF93EF93FF93E091A8
:1009D0003D22F0913E22309709F00995FF91EF9169
:1009E000BF91AF919F918F917F916F915F914F9147
:1009F0003F912F910F900FBE0F901F9018951F924F
:100A00000F920FB60F9211242F933F934F935F9342
:100A10006F937F938F939F93AF93BF93EF93FF93C6
:100A2000E0913B22F0913C22309709F00995FF912B
:100A3000EF91BF91AF919F918F917F916F915F9156
:100A40004F913F912F910F900FBE0F901F901895CF
:100A50001F920F920FB60F9211242F933F934F9333
:100A60005F936F937F938F939F93AF93BF93EF9316
:100A7000FF93E0913922F0913A22309709F00995DD
:100A8000FF91EF91BF91AF919F918F917F916F9166
:100A90005F914F913F912F910F900FBE0F901F903C
:100AA00018951F920F920FB60F9211242F933F9318
:100AB0004F935F936F937F938F939F93AF93BF9366
:100AC000EF93FF93E0913722F0913822309709F0AD
:100AD0000995FF91EF91BF91AF919F918F917F9178
:100AE0006F915F914F913F912F910F900FBE0F909B
:100AF0001F9018951F920F920FB60F9211242F93EB
:100B00003F934F935F936F937F938F939F93AF9395
:100B1000BF93EF93FF93E0913522F0913622309707
:100B200009F00995FF91EF91BF91AF919F918F913E
:100B30007F916F915F914F913F912F910F900FBED9
:100B40000F901F9018951F920F920FB60F921124BD
:100B50002F933F934F935F936F937F938F939F93C5
:100B6000AF93BF93EF93FF93E0913322F091342240
:100B7000309709F00995FF91EF91BF91AF919F9147
:100B80008F917F916F915F914F913F912F910F9036
:100B90000FBE0F901F9018951F920F920FB60F92D5
:100BA00011242F933F934F935F936F937F938F9372
:100BB0009F93AF93BF93EF93FF93E0913122F09116
:100BC0003222309709F00995FF91EF91BF91AF91D3
:100BD0009F918F917F916F915F914F913F912F9155
:100BE0000F900FBE0F901F9018951F920F920FB687
:100BF0000F9211242F933F934F935F936F937F93A3
:100C00008F939F93AF93BF93EF93FF93E0912F2226
:100C1000F0913022309709F00995FF91EF91BF9143
:100C2000AF919F918F917F916F915F914F913F9184
:100C30002F910F900FBE0F901F9018951F920F923B
:100C40000FB60F9211242F933F934F935F936F939F
:100C50007F938F939F93AF93BF93EF93FF93E09115
:100C60002D22F0912E22309709F00995FF91EF91F6
:100C7000BF91AF919F918F917F916F915F914F91B4
:100C80003F912F910F900FBE0F901F9018951F92BC
:100C90000F920FB60F9211242F933F934F935F93B0
:100CA0006F937F938F939F93AF93BF93EF93FF9334
:100CB000E0912B22F0912C22309709F00995FF91B9
:100CC000EF91BF91AF919F918F917F916F915F91C4
:100CD0004F913F912F910F900FBE0F901F9018953D
:100CE0001F920F920FB60F9211242F933F934F93A1
:100CF0005F936F937F938F939F93AF93BF93EF9384
:100D0000FF93E0912922F0912A22309709F009956A
:100D1000FF91EF91BF91AF919F918F917F916F91D3
:100D20005F914F913F912F910F900FBE0F901F90A9
:100D300018951F920F920FB60F9211242F933F9385
:100D40004F935F936F937F938F939F93AF93BF93D3
:100D5000EF93FF93E0912722F0912822309709F03A
:100D60000995FF91EF91BF91AF919F918F917F91E5
:100D70006F915F914F913F912F910F900FBE0F9008
:100D80001F9018951F920F920FB60F9211242F9358
:100D90003F934F935F936F937F938F939F93AF9303
:100DA000BF93EF93FF93E0912522F0912622309795
:100DB00009F00995FF91EF91BF91AF919F918F91AC
:100DC0007F916F915F914F913F912F910F900FBE47
:100DD0000F901F9018951F920F920FB60F9211242B
:100DE0002F933F934F935F936F937F938F939F9333
:100DF000AF93BF93EF93FF93E0912322F0912422CE
:100E0000309709F00995FF91EF91BF91AF919F91B4
:100E10008F917F916F915F914F913F912F910F90A3
:100E20000FBE0F901F9018951F920F920FB60F9242
:100E300011242F933F934F935F936F937F938F93DF
:100E40009F93AF93BF93EF93FF93E0912122F09193
:100E50002222309709F00995FF91EF91BF91AF9150
:100E60009F918F917F916F915F914F913F912F91C2
:100E70000F900FBE0F901F9018951F920F920FB6F4
:100E80000F9211242F933F934F935F936F937F9310
:100E90008F939F93AF93BF93EF93FF93E0911F22A4
:100EA000F0912022309709F00995FF91EF91BF91C1
:100EB000AF919F918F917F916F915F914F913F91F2
:100EC0002F910F900FBE0F901F9018951F920F92A9
:100ED0000FB60F9211242F933F934F935F936F930D
:100EE0007F938F939F93AF93BF93EF93FF93E09183
:100EF0001D22F0911E22309709F00995FF91EF9184
:100F0000BF91AF919F918F917F916F915F914F9121
:100F10003F912F910F900FBE0F901F9018951F9229
:100F20000F920FB60F9211242F933F934F935F931D
:100F30006F937F938F939F93AF93BF93EF93FF93A1
:100F4000E0911B22F0911C22309709F00995FF9146
:100F5000EF91BF91AF919F918F917F916F915F9131
:100F60004F913F912F910F900FBE0F901F901895AA
:100F70001F920F920FB60F9211242F933F934F930E
:100F80005F936F937F938F939F93AF93BF93EF93F1
:100F9000FF93E0911922F0911A22309709F00995F8
:100FA000FF91EF91BF91AF919F918F917F916F9141
:100FB0005F914F913F912F910F900FBE0F901F9017
:100FC00018951F920F920FB60F9211242F933F93F3
:100FD0004F935F936F937F938F939F93AF93BF9341
:100FE000EF93FF93E0911722F0911822309709F0C8
:100FF0000995FF91EF91BF91AF919F918F917F9153
:101000006F915F914F913F912F910F900FBE0F9075
:101010001F9018951F920F920FB60F9211242F93C5
:101020003F934F935F936F937F938F939F93AF9370
:10103000BF93EF93FF93E0911522F0911622309722
:1010400009F00995FF91EF91BF91AF919F918F9119
:101050007F916F915F914F913F912F910F900FBEB4
:101060000F901F9018951F920F920FB60F92112498
:101070002F933F934F935F936F937F938F939F93A0
:10108000AF93BF93EF93FF93E0911322F09114225B
:10109000309709F00995FF91EF91BF91AF919F9122
:1010A0008F917F916F915F914F913F912F910F9011
:1010B0000FBE0F901F9018951F920F920FB60F92B0
:1010C00011242F933F934F935F936F937F938F934D
:1010D0009F93AF93BF93EF93FF93E0911122F09111
:1010E0001222309709F00995FF91EF91BF91AF91CE
:1010F0009F918F917F916F915F914F913F912F9130
:101100000F900FBE0F901F9018951F920F920FB661
:101110000F9211242F933F934F935F936F937F937D
:101120008F939F93AF93BF93EF93FF93E0910F2221
:10113000F0911022309709F00995FF91EF91BF913E
:10114000AF919F918F917F916F915F914F913F915F
:101150002F910F900FBE0F901F9018951F920F9216
:101160000FB60F9211242F933F934F935F936F937A
:101170007F938F939F93AF93BF93EF93FF93E091F0
:101180000D22F0910E22309709F00995FF91EF9111
:10119000BF91AF919F918F917F916F915F914F918F
:1011A0003F912F910F900FBE0F901F9018951F9297
:1011B0000F920FB60F9211242F933F934F935F938B
:1011C0006F937F938F939F93AF93BF93EF93FF930F
:1011D000E0910B22F0910C22309709F00995FF91D4
:1011E000EF91BF91AF919F918F917F916F915F919F
:1011F0004F913F912F910F900FBE0F901F90189518
:1012000015DBCBDB87E08093A200D5DA82E0809308
:1012100065066AE080E04CDA64EB78EC86E491E401
:10122000E1DAE0E8F6E082E085832FEF33EC99E045
:10123000215030409040E1F700C0000086832FEF3E
:1012400033EE97E5215030409040E1F700C00000B8
:10125000EBCFA3E1B0E0EEE2F9E058C36C014B0143
:101260002A01FC0116821782838181FF29C3AE0106
:101270004F5F5F4F3A01F6019381F40193FD859131
:1012800093FF81914F01882309F416C3853239F405
:1012900093FD859193FF81914F01853231F4B60121
:1012A00090E053D452012501E6CF10E0F12C20E06C
:1012B0002032A0F48B3269F030F4803259F083325E
:1012C00069F420612CC08D3239F0803339F421600B
:1012D00026C02260246023C0286021C027FD27C0CB
:1012E00030ED380F3A3078F426FF06C0FAE01F9F41
:1012F000300D1124132F13C04AE0F49E300D112439
:10130000F32E20620CC08E3221F426FDD5C220645B
:1013100006C08C3611F4206802C0883641F4F4010E
:1013200093FD859193FF81914F018111C1CF9BEB7B
:10133000980F933018F42061805E06C09BE9980FE7
:10134000933008F064C12F7E26FF16E02F73322EF3
:10135000853619F42064322E08C0863621F4F22F27
:10136000F0683F2E02C01111115037FE07C01C3328
:1013700050F4EE24E394E10E27E00BC0183038F06F
:1013800027E017E005C027E04CE3E42E02C0212F40
:10139000E12C520144E0A40EB11CF2016081718184
:1013A000828193810E2DA301E2D22C01098100FFDD
:1013B00002C003FF07C031FC08C032FE09C030E2A2
:1013C000232E07C02DE2222E04C09BE2292E01C04D
:1013D000212C802F8C7019F0211051C28DC237FE44
:1013E0000FC0E40C04FF04C08A81813309F4EA943D
:1013F0001E1474F5F8E0FE1578F588E0E82E2CC090
:1014000036FC2AC0812F90E0841595059CF02CEFC6
:1014100042162FEF520674F0432D4068342E0AC056
:10142000E2E0F0E0EC0FFD1FE10FF11D8081803361
:1014300019F411501111F4CF37FE0EC0EE24E394CD
:10144000E10E812F90E0481659062CF4141904C0BF
:10145000EE24E39401C010E037FE06C01414150416
:1014600034F4C201019605C085E090E002C081E03D
:1014700090E021100196112331F0212F30E02F5FF1
:101480003F4F820F931F2F2D30E08217930714F4E4
:10149000F81A01C0F12C832D897041F4FF2031F03E
:1014A000B60180E290E051D3FA94F8CF222021F0E7
:1014B000B601822D90E049D333FC08C0FF2031F003
:1014C000B60180E390E041D3FA94F8CF37FE58C0DC
:1014D000942D852D57FE02C090E080E0292E382EF5
:1014E00020E030E0A2014E1951094C875D87A2012E
:1014F000421953094E875F87612F70E044275527B3
:10150000461B570B488B598B5FEF2516350641F468
:10151000B6018EE290E02A8B3B8B17D33B892A8958
:10152000421453046CF04C855D854215530544F418
:10153000EE85FF85E20FF31FE60DF71D818101C0E7
:1015400080E351E0251A31082F5F3F4F48895989C0
:101550002416350644F0B60190E02A8B3B8BF5D279
:101560002A893B89D1CF2414350439F49A819633E2
:1015700018F4953311F404FF81E3B60190E045C0FF
:101580008A81813309F00F7EB60190E0DED211111D
:1015900005C034FC16C085E690E015C0B6018EE2A9
:1015A00090E0D3D282E0EE24E394E80EF301E80F5A
:1015B000F11D8081B60190E0C8D211508E2D99F7AF
:1015C000E8CF85E490E0B601C0D257FC05C04114D5
:1015D000510439F404FF05C05194419451088DE23F
:1015E00001C08BE2B60190E0B0D280E39AE04916E8
:1015F00051042CF08F5F5AE0451A5108F7CFB6011D
:1016000090E0A3D2B601C201C0969FD24CC18336EE
:1016100031F0833779F0833509F054C020C052018E
:10162000E2E0AE0EB11CF2018081898301E010E09E
:10163000230113C05201F2E0AF0EB11CF201408051
:10164000518026FF03C0612F70E002C06FEF7FEF73
:10165000C2012A8B6FD28C012A892F7714C05201C4
:10166000F2E0AF0EB11CF2014080518026FF03C0B2
:10167000612F70E002C06FEF7FEFC2012A8B4FD263
:101680008C012A892068322E23FD18C08F2D90E00E
:101690000817190798F4B60180E290E056D2FA9440
:1016A000F5CFF20137FC859137FE81912F01B6010C
:1016B00090E04BD2F110FA94015011090115110577
:1016C00081F7F1C0843611F0893651F5520127FFB8
:1016D00009C0F4E0AF0EB11CF2016081718182811A
:1016E00093810AC0F2E0AF0EB11CF20160817181FA
:1016F000072E000C880B990B2F76322E97FF09C00E
:1017000090958095709561957F4F8F4F9F4F206882
:10171000322E2AE030E0A30170D2E82EE6183EC057
:10172000022F853721F40F7E2AE030E01DC0097FAB
:101730008F3691F018F4883559F0BEC0803719F013
:10174000883711F0B9C0006104FF09C0046007C008
:1017500024FF08C0066006C028E030E005C020E194
:1017600030E002C020E132E0520107FF09C0F4E09E
:10177000AF0EB11CF201608171818281938108C03A
:10178000F2E0AF0EB11CF2016081718180E090E067
:10179000A30133D2E82EE6180F77302E36FE0BC0A9
:1017A000332D3E7FE11650F434FE0AC032FC08C0EF
:1017B000332D3E7E05C00E2D332D03C00E2D01C0EE
:1017C000012F34FF0CC0FE01EE0DF11D808180332E
:1017D00011F4397E08C032FF05C00E5F04C0832FAC
:1017E000867809F00F5F33FD12C030FF06C01E2D52
:1017F0000F1518F41F0D101B0F2D0F1560F4B601F7
:1018000080E290E03B8BA1D10F5F3B89F6CF0F15B3
:1018100010F4F01A01C0F12C34FF11C0B60180E3BE
:1018200090E03B8B92D13B8932FF16C031FD03C063
:1018300088E790E002C088E590E0B6010CC0832FF5
:10184000867851F031FF02C08BE201C080E237FDA3
:101850008DE2B60190E079D1E11630F4B60180E373
:1018600090E073D11150F8CFEA94F301EE0DF11D21
:101870008081B60190E069D1E110F6CF14C0F4E0A8
:10188000FF1548F584E0F81A33FE1DC0211024C06E
:1018900003FF27C00CEF11E0F32DF0713F2EF8018C
:1018A0008491811121C0FF2009F4FDCCB60180E2B2
:1018B00090E04BD1FA94F7CFF6018681978123C04F
:1018C0008FEF9FEF20C0B60180E290E03ED1FA9406
:1018D000F110F9CFDBCFF12CB601822D90E035D19C
:1018E000D7CF00E012E0D8CF31108052B60190E09F
:1018F0002CD10F5F1F4FD3CF23E02F1510F483E0BF
:10190000C2CFF12CC5CF6396E2E119C02F923F926E
:101910004F925F926F927F928F929F92AF92BF92FF
:10192000CF92DF92EF92FF920F931F93CF93DF93AB
:10193000CDB7DEB7CA1BDB0BCDBFDEBF09942A884B
:10194000398848885F846E847D848C849B84AA84D3
:10195000B984C884DF80EE80FD800C811B81AA8160
:10196000B981CE0FD11DCDBFDEBFED010895283066
:1019700008F027E03327DA01990F311D87FD9160C8
:1019800000966105710539F432602E5F3D9330E3B6
:101990002A95E1F708959F3F30F080387105610581
:1019A00009F03C5F3C5F3D93913008F08068911DE9
:1019B000DF93CF931F930F93FF92EF92192F987F8E
:1019C0009695E92F96959695E90FFF27E25AFD4FD8
:1019D00099273327EE24FF24A701E70105900894F7
:1019E000079428F4360FE71EF81E491F511D660F95
:1019F000771F881F991F0694A1F70590079428F474
:101A0000E70EF81E491F561FC11D770F881F991F2B
:101A1000661F0694A1F70590079428F4F80E491F55
:101A2000561FC71FD11D880F991F661F771F069469
:101A3000A1F70590079420F4490F561FC71FD81F20
:101A4000990F661F771F881F0694A9F78491109538
:101A5000177041F0D695C79557954795F794E79439
:101A60001A95C1F7E4E0F2E068941590159135916C
:101A70006591959105907FE27395E118F10A430B0A
:101A8000560BC90BD009C0F7E10CF11E431F561FBE
:101A9000C91FD01D7EF4703311F48A95E6CFE89407
:101AA000015030F0080F0AF40027021708F4202F25
:101AB0002395022F7A3328F079E37D932A95E9F76D
:101AC00010C07D932A9589F606949795679537956A
:101AD00017951794E118F10A430B560BC90BD0095F
:101AE00098F023957E9173957A3308F070E37C9398
:101AF0002013B8F77E9170617D9330F0839571E388
:101B00007D9370E32A95E1F71124EF90FF900F91F8
:101B10001F91CF91DF91992787FD90950895FC0142
:101B20000590615070400110D8F7809590958E0F08
:101B30009F1F0895FC016150704001900110D8F77B
:101B4000809590958E0F9F1F08950F931F93CF93AD
:101B5000DF93FB01238121FD03C08FEF9FEF28C09E
:101B600022FF16C0468157812481358142175307D1
:101B700044F4A081B1819D012F5F3F4F20833183C9
:101B80008C93268137812F5F3F4F2683378310C088
:101B9000EB01092F182F0084F185E02D0995892B81
:101BA000E1F68E819F8101968E839F83812F902FF6
:101BB000DF91CF911F910F910895AEE0B0E0E2EE7A
:101BC000FDE0B2CE0D891E8986E08C8309831A83DD
:101BD0008FEF9FE78D839E83AE01475E5F4F6F89D6
:101BE000788DCE01019635DB2F813885F801E20F23
:101BF000F31F10822E96E4E0B0CEFA01AA27283017
:101C000051F1203181F1E8946F936E7F6E5F7F4FC9
:101C10008F4F9F4FAF4FB1E03ED0B4E03CD0670F45
:101C2000781F891F9A1FA11D680F791F8A1F911D98
:101C3000A11D6A0F711D811D911DA11D20D009F4E8
:101C400068943F912AE0269F11243019305D31932A
:101C5000DEF6CF010895462F4770405D4193B3E013
:101C60000FD0C9F7F6CF462F4F70405D4A3318F0BA
:101C7000495D31FD4052419302D0A9F7EACFB4E06B
:101C8000A6959795879577956795BA95C9F7009723
:101C90006105710508959B01AC010A2E06945795C4
:101CA000479537952795BA95C9F7620F731F841F1B
:0A1CB000951FA01D0895F894FFCFC2
:101CBA004F4B0045534300252B3031302E326600FE
:101CCA00000000000000005F000000070007001489
:101CDA007F147F14242A7F2A122313086462364948
:101CEA005522500005030000001C22410000412239
:101CFA001C00082A1C2A0808083E08080050300060
:101D0A0000080808080800606000002010080402A3
:101D1A003E5149453E00427F4000426151494621B9
:101D2A0041454B311814127F1027454545393C4A25
:101D3A004949300171090503364949493606494975
:101D4A00291E006C6C0000005636000000081422A0
:101D5A0041141414141441221408000201510906F2
:101D6A00324979413E7E1111117E7F494949363EF9
:101D7A00414141227F4141221C7F494949417F0912
:101D8A000901013E414151327F0808087F00417F25
:101D9A0041002040413F017F081422417F404040DA
:101DAA00407F0204027F7F0408107F3E4141413E8A
:101DBA007F090909063E4151215E7F0919294646D4
:101DCA004949493101017F01013F4040403F1F20FD
:101DDA0040201F7F2018207F6314081463030478AF
:101DEA000403615149454300007F41410204081040
:101DFA002041417F0000040201020440404040406B
:101E0A00000102040020545454787F48444438386E
:101E1A0044444420384444487F3854545418087E73
:101E2A00090102081454543C7F0804047800447DD4
:101E3A0040002040443D00007F10284400417F407C
:101E4A00007C041804787C08040478384444443834
:101E5A007C14141408081414187C7C080404084818
:101E6A0054545420043F4440203C4040207C1C20D1
:101E7A0040201C3C4030403C44281028440C505020
:101E8A00503C4464544C44000836410000007F0032
:101E9A0000004136080008082A1C08081C2A0808FD
:101EAA0008043E040810207C2010000002050200ED
:00000001FF
