S01B00004445564943455F4558414D504C45315F6D73632E737265631B
S11300005FC100007AC1000078C1000076C1000021
S113001074C1000072C1000070C100006EC1000014
S11300206CC100006AC1000068C1000066C1000024
S113003064C1000062C1000060C100005EC1000034
S11300405CC100005AC1000058C1000056C1000044
S113005054C1000052C1000050C100004EC1000054
S11300604CC100004AC1000048C1000046C1000064
S113007044C1000042C1000040C100003EC1000074
S11300803CC100003AC1000038C1000036C1000084
S113009034C1000032C1000030C100002EC1000094
S11300A02CC100002AC1000028C1000026C10000A4
S11300B024C1000022C1000020C100001EC10000B4
S11300C01CC100001AC1000018C1000016C10000C4
S11300D014C1000012C1000010C100000EC10000D4
S11300E00CC100000AC1000008C1000006C10000E4
S11300F004C1000002C1000000C10000FEC00000F5
S1130100FCC00000FAC00000F8C00000F6C0000007
S1130110F4C00000F2C00000F0C00000EEC0000017
S1130120ECC00000EAC00000E8C00000E6C0000027
S1130130E4C00000E2C00000E0C00000DEC0000037
S1130140DCC00000DAC00000D8C00000D6C0000047
S1130150D4C00000D2C00000D0C00000CEC0000057
S1130160CCC00000CAC00000C8C00000C6C0000067
S1130170C4C00000C2C00000C0C00000BEC0000077
S1130180BCC00000BAC00000B8C00000B6C0000087
S1130190B4C00000B2C00000B0C00000AEC0000097
S11301A0ACC00000AAC00000A8C00000A6C00000A7
S11301B0A4C00000A2C00000A0C000009EC00000B7
S11301C09CC000009AC0000098C0000096C00000C7
S11301D094C0000092C0000090C000008EC00000D7
S11301E08CC000008AC0000088C0000086C00000E7
S11301F084C000000C9439160C94F016FB096C0AA8
S11302006C0A8D096C0A6C0A6C0A6C0A6C0A6C0A1A
S11302106C0A6C0A6C0A6C0A6C0A6C0A6C0A6C0A2A
S1130220A2096C0A6C0A6C0A6C0A6C0A6C0A6C0AE5
S1130230F5094F0A6C0A6C0A5A0A6C0A6C0A6C0AB1
S11302406C0A6C0A6C0A0C0A6C0A6C0A660A6C0A60
S1130250690A6C0A6C0A6C0A6C0A630A6C0A6C0AF6
S11302606C0A6C0A6C0A6C0A6C0A6C0A6C0A6C0ADA
S11302706C0A6C0A6C0A6C0A6C0A6C0A6C0A6C0ACA
S11302806C0A6C0A6C0A6C0A6C0A6C0A6C0A6C0ABA
S11302906C0A6C0A6C0A6C0A6C0A6C0A6C0A6C0AAA
S11302A06C0A6C0A6C0A6C0A6C0A6C0A6C0A6C0A9A
S11302B0F80900110311061109110C110F11121183
S11302C011241FBECFEFCDBFDFE2DEBF10E2A0E0FE
S11302D0B0E2EAE7F1E302C005900D92AA3DB1074E
S11302E0D9F724E2AAEDB0E201C01D92A139B20708
S11302F0E1F70E94E4170C94BB1882CEE0E0F6E02C
S113030081E0868382E0858384E0858388E0858339
S11303100895E0E0F6E081E0858382E0858384E06F
S1130320858388E08583089581E080930606089597
S113033084E080930606089584E08093050608957A
S113034088E080930606089588E080930506089562
S1130350AC019C01369527953695279536952795BA
S1130360A5ECB0E20E94A3189C01329522952F704F
S113037023273F70232768EE73E0269FC001279F41
S1130380900D369F900D11249A01281B390B21F4EE
S113039082E0809306060895243F314019F482E0F8
S11303A0809305060895CF92DF92EF92FF920F9308
S11303B01F936623A9F081111AC0C12CD12C760198
S11303C000E01BE127EB30E040E060E070E280EC0D
S11303D098E0AAD460E070E280EC98E0E6D407C02C
S11303E0811105C060E070E280EC98E0F4D41F91C4
S11303F00F91FF90EF90DF90CF900895CF93DF930C
S113040000D0CDB7DEB78091DA209091DB20A091A7
S1130410DC20B091DD20072E73E1B695A795979562
S113042087957A95D1F7702D61E0BDDF87ED8A83DA
S113043041E050E0BE016E5F7F4F80EC98E093D4C2
S113044041E050E0BE016F5F7F4F80EC98E09AD4AA
S113045089818823ACF78091DA209091DB20A091E8
S1130460DC20B091DD20072E73E1B695A795979512
S113047087957A95D1F7702D60E095DF0F900F90F6
S1130480DF91CF9108958091C00886FD08C080EC6B
S113049098E033D4E0ECF8E08081806480831092AB
S11304A0DE2081E00895CF93DF9300D0CDB7DEB78F
S11304B0198261E080E077DF87ED8A8341E050E0D4
S11304C0BE016E5F7F4F80EC98E04DD441E050E078
S11304D0BE016F5F7F4F80EC98E054D460E080E011
S11304E062DF29812C7330E081E02C3131050CF47A
S11304F080E00F900F90DF91CF9108951F93CF93D9
S1130500DF93CDB7DEB72C97CDBFDEBF6115710584
S113051028E08207910508F08CC0DC01CB018093B0
S1130520DA209093DB20A093DC20B093DD2080912F
S1130530DE20811163DF1092DE208091DA20909119
S1130540DB20A091DC20B091DD20072E73E1B6956D
S1130550A795979587957A95D1F7702D61E023DF5C
S113056082ED8C8741E050E0BE01645F7F4F80ECF8
S113057098E0F9D34091DA205091DB206091DC209F
S11305807091DD20BB27A72F962F852F072E79E0AA
S1130590880F991FAA1FBB1F7A95D1F7702D842B42
S11305A089839A83AB83BC838B818B8741E050E042
S11305B0BE01655F7F4F80EC98E0D5D38A818A873E
S11305C041E050E0BE01665F7F4F80EC98E0CBD302
S11305D08981898741E050E0BE01675F7F4F80ECED
S11305E098E0C1D315E5188741E050E0BE01685F8B
S11305F07F4F80EC98E0B7D31F8341E050E0BE0109
S1130600695F7F4F80EC98E0AED31E8341E050E0F9
S1130610BE016A5F7F4F80EC98E0A5D31D8341E063
S113062050E0BE016B5F7F4F80EC98E09CD381E08B
S113063001C080E02C96CDBFDEBFDF91CF911F912A
S11306400895052E59E0660F771F881F991F5A9544
S1130650D1F7502D6115710528E08207910510F43A
S11306604DCF089580E008958091DA209091DB20A9
S1130670A091DC20B091DD200097A105B10569F0BF
S11306800197A109B109072E73E1B695A79597952E
S113069087957A95D1F7702D01C080E060E083DE04
S11306A01092DE200895CF93DF93CDB7DEB728975D
S11306B0CDBFDEBF6115710528E08207910508F002
S11306C067C0DC01CB018093DA209093DB20A093F8
S11306D0DC20B093DD208091DE2081118FDE10922A
S11306E0DE208091DA209091DB20A091DC20B09173
S11306F0DD20072E73E1B695A795979587957A9592
S1130700D1F7702D61E04FDE82E8888741E050E048
S1130710BE01685F7F4F80EC98E025D34091DA20DA
S11307205091DB206091DC207091DD20BB27A72F46
S1130730962F852F072E79E0880F991FAA1FBB1FBC
S11307407A95D1F7702D842B89839A83AB83BC83EC
S11307508B818F8341E050E0BE01695F7F4F80EC65
S113076098E001D38A818E8341E050E0BE016A5F44
S11307707F4F80EC98E0F7D289818D8341E050E08F
S1130780BE016B5F7F4F80EC98E0EDD281E001C049
S113079080E02896CDBFDEBFDF91CF910895052E6E
S11307A059E0660F771F881F991F5A95D1F7502D6E
S11307B06115710528E08207910510F474CF08953E
S11307C080E00895CF93DF931F92CDB7DEB7809179
S11307D0DA209091DB20A091DC20B091DD20AC01E7
S11307E0BD01517066277727452B462B472B29F1EE
S11307F0198241E050E0BE016F5F7F4F80EC98E0CA
S1130800B2D28091DA209091DB20A091DC20B091CB
S1130810DD200196A11DB11D8093DA209093DB2089
S1130820A093DC20B093DD20AC01BD01517066279C
S11308307727452B462B472BD9F60097A105B10501
S113084069F00197A109B109072E73E1B695A7953F
S1130850979587957A95D1F7702D01C080E060E077
S1130860A2DD81E08093DE200F90DF91CF91089587
S1130870CF92DF92EF92FF92CF93DF93EC016091DE
S1130880DA207091DB208091DC209091DD206B01D7
S11308907C0122E0D20EE11CF11C2091DE202223F7
S11308A019F01092DE202ADE8091DA209091DB206C
S11308B0A091DC20B091DD208C159D05AE05BF050F
S11308C088F540E051E0BE0180EC98E05BD24091B5
S11308D0DA205091DB206091DC207091DD205F5F95
S11308E06F4F7F4F4093DA205093DB206093DC20DE
S11308F07093DD20D395B8DE6091DA207091DB200F
S11309008091DC209091DD20F9DD8091DA209091B6
S1130910DB20A091DC20B091DD208C159D05AE0577
S1130920BF0578F281E0DF91CF91FF90EF90DF90E7
S1130930CF900895CF92DF92EF92FF921F93CF93BF
S1130940DF93EC016091DA207091DB208091DC2050
S11309509091DD206B017C0122E0D20EE11CF11CA0
S11309602091DE2021119FDE11E044C040E051E0DF
S1130970BE0180EC98E0F7D14091DA205091DB2061
S11309806091DC207091DD20DB01CA019F5FAF4FD5
S1130990BF4F8093DA209093DB20A093DC20B093A8
S11309A0DD20D395811118C0892B8A2B8B2B79F0EC
S11309B041505F4F6F4F7F4F032E33E1769567951C
S11309C0579547953A95D1F7302D842F01C080E093
S11309D060E0E9DC1093DE206091DA207091DB2086
S11309E08091DC209091DD206C157D058E059F059E
S11309F008F459DE8091DA209091DB20A091DC206C
S1130A00B091DD208C159D05AE05BF0508F4AECF71
S1130A1081E0DF91CF911F91FF90EF90DF90CF9015
S1130A2008958091DF22811105C03DDD811104C04C
S1130A3082E0089582E0089580E008954FEF53E046
S1130A4060E070E0FC01408351836283738380E043
S1130A50089580E0089581E008950F931F93CF9344
S1130A60DF938B019C01040F151F211D311D0130E3
S1130A70144021053105A0F4EA01E3DD209769F073
S1130A808FED90E2F5DE20E030E040E052E06FEDE3
S1130A9070E281E0D6D5219799F7E6DD80E001C0C8
S1130AA081E0DF91CF911F910F9108950F931F93D0
S1130AB0CF93DF938B019C01040F151F211D311D62
S1130AC00130144021053105A0F4EA0168DE2097C5
S1130AD069F020E030E040E052E06FED70E280E049
S1130AE0B0D58FED90E226DF219799F76BDE80E099
S1130AF001C081E0DF91CF911F910F9108950F9371
S1130B001F93CF93DF93CDB7DEB72797CDBFDEBF5B
S1130B108FEF8093700080937100809372008093B4
S1130B20730080937400809375008093760064E072
S1130B3081E490E00E94AE0F6CE170E082E00E94DC
S1130B40B40F8A836DE170E082E00E94B40F898360
S1130B5089819A81019621F480E493E289839A83BE
S1130B6089819A818B839C83E0E6F0E082838C8187
S1130B7083838FB78E83F8949E81E0E5F0E08081D3
S1130B80826080839FBF818181FFFDCF8FB78D837A
S1130B90F8949D8100E510E0D80116968C91169783
S1130BA0897F16968C931697E0E6F0E080E88583BB
S1130BB08BEB868316968C911697846016968C938D
S1130BC08081816080839FBF61E080E490E00E9427
S1130BD0AE0F8FB78F83F8949F81F80180818E7F49
S1130BE080839FBF2796CDBFDEBFDF91CF911F913A
S1130BF00F910895CF93DF931F92CDB7DEB79FB7C0
S1130C009983F8949981E82FF0E0E059FF4F6095BB
S1130C108081682360839FBF0F90DF91CF910895F7
S1130C20CF93DF9300D0CDB7DEB7863011F060E00C
S1130C3001C068E18091510081FD2AC08FB78A8389
S1130C40F8949A81E0E5F0E08081826080839FBF20
S1130C50818181FFFDCF8FB78983F8949981A0E5C5
S1130C60B0E016968C911697897F16968C931697FA
S1130C70E0E6F0E080E885838BEB868316968C9122
S1130C801697846016968C938081816080839FBFC1
S1130C90636084E490E00E94AE0F60E480E0AADF29
S1130CA00F900F90DF91CF910895CF93DF93FC01C4
S1130CB0709620E030E0C62FD0E0DE01022E02C0A4
S1130CC0B595A7950A94E2F7A0FD50832F5F3F4F97
S1130CD031962830310589F740FF0AC041FF03C02F
S1130CE0FC01658302C0FC016683FC01618302C0D0
S1130CF0FC016283DF91CF910895CF93DF93EC01E0
S1130D00C03C28E0D20721F468E083E073DF06C02A
S1130D10803C994019F468E084E06CDF888180614C
S1130D208883DF91CF910895EF92FF920F931F93E1
S1130D30CF937C01C42FB901A80100E016E32EE68D
S1130D4031E00E94BE0F882344F0F7019081CC0F5C
S1130D50CC0FCC70937FC92BC083CF911F910F917F
S1130D60FF90EF900895FC01DB01460F571F05C06B
S1130D708D91838392819923ECF7A417B507C1F76A
S1130D8080E00895FC01DB014115510561F0460F37
S1130D90571F2FEF238392819923ECF783818D933F
S1130DA0A417B507B9F780E00895FB018081E82F07
S1130DB0E695E695E69540E2E49FF0011124FA5F9A
S1130DC0877021E030E0A90102C0440F551F8A95C5
S1130DD0E2F746830895FB018081E82FE695E695C6
S1130DE0E69540E2E49FF0011124FA5F877021E068
S1130DF030E0A90102C0440F551F8A95E2F74583EC
S1130E00089581E00895811102C00BCE089581E018
S1130E100895811103C0CB0111CE089581E0089596
S1130E20811103C081E08627089580E0089581112F
S1130E3002C00FCE089581E00895811102C00BCE47
S1130E40089581E00895882319F080E090E00895E2
S1130E5088EB90E20895CF92DF92EF92FF920F9386
S1130E601F93CF93C82F6A017B01890161DAC111F5
S1130E7006C0A801C701B601F0DDC82F01C0C1E05A
S1130E805BDA8C2FCF911F910F91FF90EF90DF9041
S1130E90CF900895CF92DF92EF92FF920F931F931A
S1130EA0CF93C82F6A017B0189014ADAC11106C0B8
S1130EB0A801C701B601FADDC82F01C0C1E044DAB8
S1130EC08C2FCF911F910F91FF90EF90DF90CF90D7
S1130ED0089580E0089591E0811101C090E090931D
S1130EE0802481E080932D2008950F931F930BE4B9
S1130EF019E02FE130E040E253E261E082E00E9439
S1130F00BC14811105C065E777E082E00E940516F4
S1130F101F910F910895CF93DF93109203231092A2
S1130F20042381E080932D2080932C206ADF81119B
S1130F3004C010921C23D0E012C0815080931C2363
S1130F400E945D18D82F882351F0C0E060E08C2FF8
S1130F5067DFCF5F90911C239C17C0F7C6DF8D2FEE
S1130F60DF91CF910895C1CF08950F931F9303EBA1
S1130F7017E02DE030E040E350E260E081E80E94B9
S1130F80BC14811105C065EB77E081E80E94051669
S1130F901F910F91089580910423882341F082E0EA
S1130FA00E94E8156BEC77E082E00C940516089536
S1130FB080910423882341F081E80E94E81568EDBC
S1130FC077E081E80C94051608958091382090917B
S1130FD03920A0913A20B0913B20892B8A2B8B2B6E
S1130FE059F080912C23882324F481E80E94E81589
S1130FF003C082E00E94E815809124239091252368
S1131000A0912623B09127238093342090933520F8
S1131010A0933620B0933720A8CF0895E8E0F3E2F8
S113102082E1DF011D928A95E9F780EF80838AE0EF
S113103087830895DF92EF92FF920F931F93CF93CC
S1131040DF93D82EC62FD72F122F032FF42EE52E81
S1131050E5DF81E080933C20E8E0F3E2D282E382A2
S1131060F48205831683D487C587DF91CF911F91BE
S11310700F91FF90EF90DF90089520E030E0A901F8
S113108060E074E285E0D6CF08950F931F9320911A
S11310902C2342276CF000913820109139202091A4
S11310A03A2030913B20061717072807390720F408
S11310B0E4DF8BDF80E001C081E01F910F91089590
S11310C020E030E0A90160E070E084E0B3CF08954F
S11310D00F931F93262F30E00EE818E0AC0161E077
S11310E081E80E94BC14811102C0EADF6EDF1F9107
S11310F00F91089520E030E0A90160E078E286E0F5
S113110099CF089520E030E0A90160E07AE382E01D
S113111091CF089583DF10923C200895CF93DF93FD
S1131120811111C0EB01F6DFE0E3F0E280859185E7
S1131130A285B3858C1B9D0BA109B109808791877A
S1131140A287B38742DFDF91CF9108951F93CF9396
S1131150DF93D82F94E1E8EEF2E2DF011D929A9535
S1131160E9F7882331F020913723E0EFF2E218E029
S113117005C020913323ECEEF2E214E09091312388
S11311809F739C3111F09F3339F48CE180838AE0A2
S1131190818385E08383145FC12F211708F4C22F54
S11311A08C2F90E0A0E0B0E040E8BC01CD016DDF01
S11311B0882301F180912D233ADE811102C020E0C1
S11311C001C020E8DD2361F0E8EEF2E2812F90E037
S11311D0029798278927982780839183238306C0C1
S11311E0E8EEF2E28FEF810F808322836C2F88EE8A
S11311F092E26EDFDF91CF911F910895CF93C82FB4
S113120081110EC080912D2312DE882349F020E045
S113121030E0A90160E077E287E00CDFD6DE39C078
S1131220AEEFB2E2E0E2F3E2818913968C93139776
S1131230828912968C931297838911968C931197B5
S113124084898C93ACEFB2E2868911968C931197C2
S113125087898C936091FC227091FD22CB01A0E0E0
S1131260B0E0BC01CD01052E59E0660F771F881F41
S1131270991F5A95D1F7502DC11102C040E001C009
S113128040E803DF882329F0C093022381E08093A0
S11312900323CF9108950F931F93CF93DF9381116D
S11312A029C16F31710569F4809120239091212324
S11312B0A0912223B091232385359345A244B344BE
S11312C031F081E08093042366DE72DE13C1E0E234
S11312D0F3E285858F70858790911C23981718F405
S11312E0CCDE73DE07C1E0E2F3E24085518562851E
S11312F07385409338205093392060933A2070933B
S11313003B20E7854E2F50E04B35510508F0E4C0F3
S1131310FA01E250FF4F0C949D18C0913323C3315E
S113132008F0C2E18C2F90E0A0E0B0E040E8BC01FE
S1131330CD01ABDE882309F4DDC06C2F88E093E295
S1131340C7DED8C0C0913323C53208F0C4E28C2F65
S113135090E0A0E0B0E040E8BC01CD0196DE882337
S113136009F4C8C080913023837021F4D0913123D3
S1131370DD2319F082DE29DEBDC080912D235DDDE1
S11313808111D0E808E010E2F801D18380912D2387
S11313905ADD20E1FC013196A8E1B0E201900D9202
S11313A02A95E1F7F8018089882309F49EC08232E6
S11313B009F49DC0E9E1F0E281E09191992309F4F7
S11313C097C0923209F494C08F5F8031B1F708C09E
S11313D0E82FF0E0E85FFF4D908B8F5F8031C1F71D
S11313E06C2F88E090E274DE85C080E0AFDE82C0BE
S11313F081E0ACDE7FC007DD823039F0833019F044
S1131400811105C006C076DE05C07CDE03C058DE4F
S113141001C080DEDADD6EC040E868E070E080E0A4
S113142090E033DE882309F465C060EE72E28091B7
S11314302D23EFDC823041F0833019F0811107C095
S113144009C058DEC2DD56C05DDEBFDD53C038DEE4
S1131450BCDD50C0E0EEF2E280E090E0A2E0B0E05B
S113146084839583A683B78300811181228133818C
S1131470902F812FA0E0B0E0BC0155274427922F84
S1131480832FA0E0B0E0842B952BA62BB72B808371
S11314909183A283B38368E0CF011ADE2BC09091BD
S11314A0332391FF04C09095692F6170B9DC32DE5B
S11314B08CDD20C080913323811102C02BDE01C05A
S11314C0DCDD83DD17C026DE80DD14C081E096DE1E
S11314D011C080E093DE0EC020E030E0A90160E09E
S11314E070E285E0A7DD71DD05C080E001C080E029
S11314F090E26ECFDF91CF911F910F9108951092DA
S1131500032381E080932D2080932C200C94611878
S11315100895809181248823F4F480768032D9F56B
S1131520809182248E3FC9F58091872490918824EC
S11315300197A9F58091832490918424892B89F5BE
S1131540E1E8F4E28CE193E28087918781E090E026
S11315508287938708958076803229F5809182244A
S11315608F3F19F58091872490918824892BF9F471
S11315708091832490918424892BD9F4109204239C
S11315801092032382E00E94831581E80E94831550
S1131590ACDC81E0089580E0089580E0089580E067
S11315A0089580E0089580E0089580E0089580E043
S11315B0089580E00895CF93C0910323CC2309F4C8
S11315C03DC01092032310922C2080910223882383
S11315D081F02091FC223091FD224091FE22509115
S11315E0FF22609100237091012380912D2333DC2D
S11315F00FC02091FC223091FD224091FE22509197
S1131600FF22609100237091012380912D2342DCFD
S113161090912C20992321F010922C20C92F0EC0D8
S1131620823041F0833021F0811106C073DD05C0A2
S113163061DD03C067DD01C043DDC7DC8C2FCF91C2
S11316400895EF92FF920F931F93CF93DF93982FF8
S113165080912D20882309F448C010922D20211553
S1131660310511F0890102C00BE617E0911102C0A7
S113167082E001C081E8E9017A01AB01970160E0F1
S11316800E94BC14811104C091E090932D202DC0C0
S1131690CD2BD9F480912D208823E1F380918024EF
S11316A0811122C0E0E3F0E280859185A285B385B3
S11316B08E199F09A109B10980879187A287B387F1
S11316C09091802481E0892710C0E0E3F0E2408516
S11316D05185628573854E195F09610971094087D7
S11316E051876287738701C080E0DF91CF911F919A
S11316F00F91FF90EF900895E0914423F0914523DA
S11317000190F081E02D228133812E0F3F1FFC01D7
S11317104081E40FF11DE217F307B8F481818430AE
S1131720B9F0861309C005C081818430A1F0861305
S113173003C08E2F9F2F08958081E80FF11DE217BB
S1131740F30790F380E090E0089580E090E008953E
S113175080E090E0089580E090E0089580918324F3
S11317608F770C94D013089590914623992381F197
S1131770E0914423F09145230190F081E02D948180
S1131780891740F5E0934223F09343232281338168
S11317902E0F3F1FE217F307F8F49181943061F4A0
S11317A09281981309C09381961306C0E093422353
S11317B0F093432381E008959081E90FF11DE2172E
S11317C0F30758F3E0934223F093432380E0089512
S11317D080E0089580E0089580E00895EF92FF92FC
S11317E01F93CF93DF93C82F60E0BEDF182F8823A9
S11317F081F1A0914423B0914523EC2FF0E0EE0F4A
S1131800FF1F12968D919C911397E80FF91FE080AA
S1131810F180D7011696ED91FC9117970995682FE1
S11318208C2FA2DF182F8823A1F0C0914223D091DE
S1131830432365E0CE0160DFEC01892B21F08A812E
S11318400E94CC15F6CFD7011296ED91FC91139717
S11318500995812FDF91CF911F91FF90EF9008950B
S11318601F93CF93DF93182F7FDF882339F1C09123
S11318704223D091432365E0CE013EDFEC01892B66
S113188041F04C815D816B818A819CD78111F3CFBA
S113189015C0A0914423B0914523E12FF0E0EE0F51
S11318A0FF1F12968D919C911397E80FF91F0190D9
S11318B0F081E02D0190F081E02D0995DF91CF9129
S11318C01F910895EBC60895CF93809146238823F2
S11318D0C1F0E0914423F09145230190F081E02D83
S11318E08481882371F0C0E08C2F78DFCF5FE09192
S11318F04423F09145230190F081E02D8481C817A1
S113190098F31092462381E090E080934A239093C9
S11319104B23CF910895CF9380914623882349F197
S1131920A0914423B0914523ED91FC9111978481BA
S11319308823F9F0C0E0EC2FF0E0EE0FFF1F1296C1
S11319408D919C911397E80FF91F0190F081E02D80
S11319500084F185E02D309709F00995CF5FA091BF
S11319604423B0914523ED91FC9111978481C817CC
S113197010F3CF9108950F931F93CF93DF93E1E872
S1131980F4E21286138614861586168617868081DD
S113199088230CF063C22091872430918824211578
S11319A0310509F056C251C28F7109F0A7C0909158
S11319B08224963079F0983009F496C091119EC033
S11319C02230310509F0CAC162E070E08AE493E292
S11319D0F2D64DC28091832490918424292F3327F9
S11319E022303105A9F024F42130310541F0ADC194
S11319F023303105D9F12F30310551F1A6C1809141
S1131A004A2090914B20DC016C9170E0D4D65DC0EB
S1131A10E0914A20F0914B202189821708F09EC161
S1131A209927880F991F880F991FE0914C20F091F6
S1131A304D20E80FF91F80819181FC01628173813F
S1131A40BAD6E0918924F0918A2482E081833DC052
S1131A5080914E2090914F20009709F47FC1DC01C2
S1131A6012966D917C911397A6D62FC09927813039
S1131A70910591F058F08230910509F4F4C103976F
S1131A8009F06CC12CE08DEC90E209C064E070E0D8
S1131A9084EB90E290D619C08AEA90E229E0382FCC
S1131AA0AEE8B0E2E82FF92F819190E08D939D93F9
S1131AB08E2F831B8217C0F3622F660F6E5F6093B5
S1131AC08C2070E08CE890E276D6E1E8F4E286813E
S1131AD09781228533858217930708F0C8C18093C4
S1131AE08B2490938C24C3C12130310509F036C175
S1131AF061E070E086E493E25ED6B9C18130E1F53D
S1131B00909182249A30C1F52130310509F026C123
S1131B1080914623882309F421C1C0918524D09162
S1131B2086240091442310914523D801ED91FC9122
S1131B308481C81708F012C160E08C2F15DE882359
S1131B4009F40CC1CE019927880F991FD801129668
S1131B50ED91FC911397E80FF91F0190F081E02DAE
S1131B6086819781FC0109958093482361E070E0A8
S1131B7088E493E220D67BC1823009F0EFC08091E3
S1131B8082248111E4C02230310509F0E7C080913C
S1131B908524A0D690E0809340239093412362E073
S1131BA070E080E493E207D662C18F7109F083C0CC
S1131BB090918224933009F4CCC018F49130A1F0B0
S1131BC07AC0953019F0993039F175C08091872425
S1131BD090918824892B09F0C1C08EEA9BE0809300
S1131BE08D2490938E2443C18091872490918824DE
S1131BF0892B09F0B3C080918324909184240197A8
S1131C0009F0ACC080914A2390914B238D7F80933F
S1131C104A2390934B232BC180918724909188244D
S1131C20892B09F09BC0BFD5882309F497C0209164
S1131C308324309184243327E0914A20F0914B206F
S1131C40818990E08217930708F488C03DDE809173
S1131C5083249091842480934623882309F407C124
S1131C6099278150904C880F991F880F991FE091F4
S1131C704C20F0914D20E80FF91FE0934423F0939A
S1131C8045230190F081E02D8481882309F4EFC07D
S1131C90C0E060E08C2FE4DD882309F45FC0CF5FEF
S1131CA0E0914423F09145230190F081E02D84815B
S1131CB0C81778F3DCC08130E1F4909182249B3022
S1131CC0C1F48091872490918824892B09F046C01F
S1131CD080914623882309F441C0E1E8F4E2C481F9
S1131CE0D2818C2F7BDD8823C9F16D2F8C2FB8DD39
S1131CF033C0823099F580918224813019F0833089
S1131D0089F029C08091872490918824892B31F50A
S1131D108091832490918424892B01F580918524DA
S1131D20F4D51AC08091872490918824892BB1F42A
S1131D308091832490918424892B81F4C1E8D4E296
S1131D408C81E1D68C8144D707C080E005C080E057
S1131D5003C080E001C080E081118AC080918124A9
S1131D608F71813071F580914623882351F1009160
S1131D70852410918624C0914423D0914523E88181
S1131D80F98184810817E8F460E0802FEDDC882372
S1131D90C1F0F801FF27CF01880F991FEA81FB8169
S1131DA0E80FF91FC081D181EE81FF810995682F69
S1131DB0802FDADC882329F0EC81FD8109958111DB
S1131DC057C0809181248F71823009F040C0809186
S1131DD046238823B1F1A0914423B0914523ED918A
S1131DE0FC9111978481882371F1C0E0EC2FF0E01D
S1131DF0EE0FFF1F12968D919C911397E80FF91F18
S1131E0000811181D8011696ED91FC9117970995DF
S1131E10682F8C2FA9DC882359F1D8011496ED91F1
S1131E20FC9115970995811123C0CF5FA09144239C
S1131E30B0914523ED91FC9111979481C917B0F2AB
S1131E4017C080E015C080E013C080E011C080E0BE
S1131E500FC0982F907609F081CFA6CD982F907659
S1131E6009F07CCFA2CE23E086EA90E218CE81E08E
S1131E70DF91CF911F910F91089543E050E061E00D
S1131E8080E096E00E94550643E050E062E080E086
S1131E9096E00E94550643E050E064E080E096E05E
S1131EA00E94550643E050E068E080E096E00E941E
S1131EB0550643E050E060E180E096E00E9455065C
S1131EC043E050E060E280E096E00E94550643E083
S1131ED050E060E480E096E00E94550643E050E064
S1131EE060E880E096E00E94550640E058E161E039
S1131EF080E296E00E94550640E058E162E080E20C
S1131F0096E00E94550640E058E164E080E296E0E5
S1131F100E94550640E058E168E080E296E00E94A5
S1131F20550643E050E060E880E496E00E945506E0
S1131F3043E050E060E280E496E00E94550640E011
S1131F4050E060E480E496E00E94550643E050E0EF
S1131F5060E180E496E00C94550608951BBEFC01F4
S1131F6028ED24BF608308954091CA01E62FF72F1E
S1131F708093CA0184914093CA010895CF92DF925D
S1131F80EF92FF920F931F93CF93DF93EC016A01BB
S1131F907B01DB01CA010197A109B109BC01CD0193
S1131FA0600F711F821F931FA70196010E947B1867
S1131FB02138310541055105F8F4213460F421320A
S1131FC060F4213160F4293060F4253060F423306A
S1131FD060F480E80BC083E009C082E007C082E8B7
S1131FE005C081E003C081E801C080E098819C774E
S1131FF0982B988381E001C08FEFDF91CF911F91DF
S11320000F91FF90EF90DF90CF900895CF93DF93DF
S113201000D0CDB7DEB7811126C0909178249923E2
S1132020F9F090917B24911101C0FFCF9FB79A835F
S1132030F8942A81EAE7F4E29181915091832FBFC9
S11320400FC090917B249F3F09F4FFCF9FB79983E2
S1132050F8942981EAE7F4E291819F5F91832FBF8D
S11320608093782405C090917824992351F3F8CF74
S11320700F900F90DF91CF9108950F93E8ECF4E067
S113208080818F7D808380818F7D8083ECE4F4E286
S113209002E0059310924E2410924F2400E206931E
S11320A000E40693E4E4F4E200E40693E1E8F4E2F5
S11320B01486158616861786128613861092352482
S11320C00F9108950F9385E080933524EDE4F4E2B5
S11320D004E00593E5E4F4E204E005930F91089528
S11320E00F9383E08093352410924E2410924F2452
S11320F0ECE4F4E202E006930F910895E0918D245C
S1132100F0918E24309709F0099508950F93CF9399
S1132110DF9380913524833019F4F0DFAEDF5EC0A5
S11321208091312490913224C0918B24D0918C24BD
S1132130C81BD90B71F52091332430913424820FBC
S1132140931F8093332490933424209187243091D7
S113215088248217930721F080914C23882341F02F
S113216084E080933524E4E4F4E202E0069336C08C
S1132170E0918F24F0919024309799F00995882369
S113218081F01092312410923224C0918B24D0918A
S11321908C24C034D10528F010924C23C0E4D0E044
S11321A003C081E080934C23E8E3F4E2C68BD78B31
S11321B080913124909132242091892430918A2471
S11321C0280F391F208F318FC80FD91FC093312496
S11321D0D0933224ECE4F4E202E00693DF91CF9151
S11321E00F910895FC018181E82FE7708E2F90E014
S11321F0FC013197E730F105C0F4E75AFE4F9DC763
S113220080E190E0089580E290E0089580E490E019
S1132210089580E890E0089580E091E0089580E0DA
S113222092E008958FEF93E0089588E090E0089598
S1132230282F2F7030E0220F331F082E000C990B2B
S11322408827990F881F9927820F931F02979C0153
S1132250220F331F220F331F220F331F820F931FAE
S113226083539C4D08950F93CF938091CC0480FFAA
S113227064C081E08093CC04E4E4F4E200E80693D3
S1132280ECE4F4E200E806938093CA04E4E4F4E2A4
S113229000E1069380913524882329F0835082300D
S11322A008F42CDFEADE80914624909147240897B5
S11322B009F045C088E0E1EFF3E2A1E8B4E201905F
S11322C00D928A95E1F7E8ECF4E0808180628083E6
S11322D08081806280834FDBC82F811103C0F2DECE
S11322E0C1E02EC08091812488236CF410923324A1
S11322F010923424109231241092322482E080937C
S1132300352404DF1DC08091872490918824892B73
S113231011F4E6DE15C01092332410923424109286
S113232031241092322481E080933524E4E4F4E2F1
S113233002E0069300E2069303C0C0E001C0C1E0DE
S11323408C2FCF910F9108958F929F92AF92BF924D
S1132350DF92EF92FF920F931F93CF93DF93D82EC8
S113236067DF8C01BD2CBB1CBB24BB1CCD2DCF70E7
S1132370D0E0CC0FDD1FCB0DD11DCE01880F991FEE
S1132380880F991F880F991F9C012C5B3B4D790185
S1132390C90128DF4C01BB2009F479C0FE01EE0F0E
S11323A0FF1FEE0FFF1FEE0FFF1FE85CFB4D22899E
S11323B03389D80115968D919C911697820F931F9E
S11323C015968D939C93169713962D913C91149783
S11323D08217930709F445C0281B390B2115B4E073
S11323E03B0738F02FEF33E0C901B40170D6281B46
S11323F0390BF801808181FF09C0C901B40167D696
S113240041E0892B09F040E0842F01C080E0D8012D
S11324109C9180FB91F99C93FE01EE0FFF1FEE0F40
S1132420FF1FEE0FFF1FE85CFB4D128A138A2687FD
S1132430378711962D913C91129715968D919C9109
S11324401697820F931FCC0FDD1FCC0FDD1FCC0F0F
S1132450DD1FC85BDB4D88839983F70102E0069397
S1132460E4C0D8018C9181FFCDC08D7F8C93CC0FBB
S1132470DD1FCC0FDD1FCC0FDD1FC85CDB4D1A8ABE
S11324801B8A1E861F86F70102E00693CEC0FE015A
S1132490EE0FFF1FEE0FFF1FEE0FFF1FE85CFB4D5B
S11324A0A684B784D8018C9182FF19C01196ED914E
S11324B0FC91129715962D913C91169713968D9138
S11324C09C911497B40103D6B0E4DB9EB0011124AF
S11324D0635F7C4DAC01CF01820F931F43D6F8019B
S11324E0258136812A0D3B1D258336838381948182
S11324F08217930768F485839683CC0FDD1FCC0F76
S1132500DD1FCC0FDD1FC85CDB4D8A899B897AC037
S1132510FE01EE0FFF1FEE0FFF1FEE0FFF1FE85C23
S1132520FB4D428953894A155B0509F06BC0281796
S1132530390709F467C0AC01421B530B9A012115FA
S113254054E0350750F02FEF33E0C901B401BFD593
S1132550D901A81BB90BCD0107C0C901B401B7D576
S1132560F901E81BF90BCF01FE01EE0FFF1FEE0F7F
S1132570FF1FEE0FFF1FE85CFB4D168617868815BC
S1132580990500F5D8018C9184608C93B0E4DB9EAE
S1132590C0011124835F9C4DFE01EE0FFF1FEE0F5F
S11325A0FF1FEE0FFF1FE85BFB4D80839183CC0F71
S11325B0DD1FCC0FDD1FCC0FDD1FC85CDB4D8A8A0D
S11325C09B8A1CC0F8014181528125813681240FE8
S11325D0351FFE01EE0FFF1FEE0FFF1FEE0FFF1F53
S11325E0E85BFB4D20833183CC0FDD1FCC0FDD1F57
S11325F0CC0FDD1FC85CDB4D8A8B9B8BF70102E09F
S1132600069313C0D8018C9180FF0FC08E7F8C93EA
S11326101796ED91FC911897309739F015966D91B6
S11326207C9116974D2D80E00995DF91CF911F91F4
S11326300F91FF90EF90DF90BF90AF909F908F909D
S113264008951F93CF93DF931F92CDB7DEB78FB753
S11326508983F894198181E0D9DCEAECF4E080E420
S1132660808380E28083E1ECF4E080818160808378
S1132670A9ECB4E08C9182608C93E8ECF4E0808166
S1132680806480838C9181608C9380818068808356
S11326901FBF0F90DF91CF911F9108950F931F9348
S11326A0CF93DF9300D0CDB7DEB700E610E0F8019A
S11326B0108280E30E941006E0ECF4E080818064E4
S11326C0808381E0F80180838FB78A83F8941A812C
S11326D0E8E3F4E21586158A158E15A215A615AA47
S11326E0EDECF3E280818E7F8083E6EDF3E280817E
S11326F08E7F8083EFEDF3E280818E7F8083E8EE2E
S1132700F3E280818E7F80836AE170E082E02CDCDA
S11327108F3F19F08093FA0403C08FE18093FA0489
S11327206BE170E082E020DC8F3F19F08093FB04C2
S113273003C08FE18093FB04E0ECF4E080818260CD
S1132740808380818068808380818061808384E449
S113275094E2868397838081806280838FEF809365
S1132760C504E8ECF4E080818160808310927824D1
S113277080917F248F3F09F4FFCF8FB78983F8942A
S11327809981EAE7F4E285818F5F85839FBF59DFF2
S11327901FBF0F900F90DF91CF911F910F9108955C
S11327A08093C30408958091C30408958091742490
S11327B0909175240895E1E8F4E280879187628717
S11327C073870895282F2F7030E0220F331F082EAF
S11327D0000C990B8827990F881F9927820F931F44
S11327E0FC01EE0FFF1FEE0FFF1FEE0FFF1FE85C53
S11327F0FB4D2585207C09F069C06370613011F0C0
S113280018F404C020EC03C020E801C020E44038E0
S11328105105E9F050F440325105A9F04034510516
S1132820A1F040315105D9F40CC0411532E05307F1
S113283091F04F3F33E0530781F04115514079F453
S113284008C041E00DC042E00BC043E009C044E0D1
S113285007C045E005C046E003C047E001C040E0D2
S1132860FC01EE0FFF1FEE0FFF1FEE0FFF1FE85CD2
S1132870FB4D158636E03487242B2587FC01EE0FAB
S1132880FF1FEE0FFF1FEE0FFF1FE85CFB4D2585BA
S1132890207C203C69F4FC01EE0FFF1FEE0FFF1FAC
S11328A0EE0FFF1FE85CFB4D25852770273081F074
S11328B0880F991F880F991F880F991FFC01E85CE6
S11328C0FB4D85858062858781E0089580E00895C9
S11328D081E00895E82FEF70F0E0EE0FFF1F082E5F
S11328E0000C990B8827990F881F9927E80FF91F67
S11328F0EE0FFF1FEE0FFF1FEE0FFF1FE85CFB4DF7
S1132900858582FB882780F908950F93282F2F70DF
S113291030E0A901440F551F282F082E000C330B5B
S11329202227330F221F3327240F351FA901440FF9
S1132930551F440F551F440F551FFA01EC5BFB4D07
S113294001E00693FA01E85CFB4D958592FF11C006
S1132950FA01E85CFB4D95859B7F958769DCFC015A
S1132960808180FF06C08E7F80830780F085E02D04
S1132970099581E00F9108955F926F927F928F92F3
S11329809F92AF92BF92CF92DF92EF92FF920F93FA
S11329901F93CF93DF931F92CDB7DEB7782E662EA9
S11329A04A01590145DC6C01572C551C5524551C12
S11329B0872D8F70E82EF12CEE0CFF1CE50CF11C1A
S11329C0F701EE0FFF1FEE0FFF1FEE0FFF1FE85C76
S11329D0FB4D8585807C09F481C0F701EE0FFF1F54
S11329E0EE0FFF1FEE0FFF1FE85CFB4D8585807C1B
S11329F0803C61F0F701EE0FFF1FEE0FFF1FEE0F9B
S1132A00FF1FE85CFB4D858582FD6AC08FB7898313
S1132A10F8948981F601908190FF03C08FBF512CF7
S1132A2060C0F6019081916090838FBF8182928211
S1132A30A382B4821582168207831087611006C0B0
S1132A4091E0A114B10419F090E001C091E0F60105
S1132A50808190FB81F98B7F8083552061F0F701A1
S1132A60EE0FFF1FEE0FFF1FEE0FFF1FE85CFB4D85
S1132A70128A138A2EC0F701EE0FFF1FEE0FFF1FFD
S1132A80EE0FFF1FE85CFB4D8585807C803CA1F444
S1132A90C701880F991F880F991F880F991F8C5B96
S1132AA09B4DA0DBBC01C50112D3892B29F0F60193
S1132AB080818E7F808315C0F701EE0FFF1FEE0F1C
S1132AC0FF1FEE0FFF1FE85CFB4D16861786128A68
S1132AD0138A872D39DC5524539403C0512C01C02B
S1132AE0512C852D0F90DF91CF911F910F91FF9065
S1132AF0EF90DF90CF90BF90AF909F908F907F909A
S1132B006F905F900895FF920F931F93CF93DF937D
S1132B10182FF82EFF1CFF24FF1CC82FCF70D0E005
S1132B20CC0FDD1FCF0DD11D83DBDC01FE01EE0FC9
S1132B30FF1FEE0FFF1FEE0FFF1FEC5BFB4D02E0CC
S1132B4005938C9180FF22C08E7F8C931796ED9114
S1132B50FC9118973097D1F0FF2059F0CC0FDD1F6E
S1132B60CC0FDD1FCC0FDD1FC85CDB4D6A897B8970
S1132B700AC0CC0FDD1FCC0FDD1FCC0FDD1FC85CDE
S1132B80DB4D6E857F85412F81E00995DF91CF91E3
S1132B901F910F91FF900895CF93C82FB4DFEC2FAE
S1132BA0EF70F0E0EE0FFF1F8C2FCC0F990B8827EE
S1132BB0990F881F9927E80FF91FEE0FFF1FEE0FDB
S1132BC0FF1FEE0FFF1FE85CFB4D1586CF910895A4
S1132BD0E82FEF70F0E0EE0FFF1F282F082E000CF7
S1132BE0330B2227330F221F3327E20FF31FEE0F7D
S1132BF0FF1FEE0FFF1FEE0FFF1FE85CFB4D9585D7
S1132C009460958780DF81E008950F931F93CF939D
S1132C10DF938B01C82FCF70D0E0CC0FDD1F282F9E
S1132C20082E000C330B2227330F221F3327C20F29
S1132C30D31FFEDACC0FDD1FCC0FDD1FCC0FDD1F41
S1132C40C85CDB4D2D8522FF0AC0FC01208120FDDC
S1132C500AC0216020830783108781E005C0F80142
S1132C60099581E001C080E0DF91CF911F910F9120
S1132C7008951F920F920FB60F9211240F932F9362
S1132C803F934F935F936F937F938F939F93AF93F0
S1132C90BF93EF93FF938091CB0488233CF480E8A7
S1132CA08093CA040E948B0C00D288C08091CB040C
S1132CB082FF20C084E08093CA0480914C2486FF64
S1132CC07DC08091CC0481FD79C0CDDA811176C0BC
S1132CD080913524813011F403DA70C0843009F016
S1132CE06DC0EDE4F4E204E00593E5E4F4E204E00D
S1132CF0059364C08091CB0481FF5BC082E0809324
S1132D00CA048091442486FF59C08091CC0481FD7B
S1132D1055C0A9DA811152C080913524823041F422
S1132D2084E080933524E4E4F4E202E0069346C0B0
S1132D30833009F043C0EDE4F4E204E00593E5E4F4
S1132D40F4E204E005933AC080E18093CA0481E090
S1132D50DADE81E8D8DE82E0D6DE82E8D4DE0E94C4
S1132D60640C1092C304E8E3F4E2158696E09487B9
S1132D7083E48587158A948B858B81EF93E2808B1E
S1132D80918B7BD91BC08091CB0486FF07C080E464
S1132D908093CA0480E03AD982D110C08091CB04D8
S1132DA085FF0CC080E28093CA0481E02FD97AD1D8
S1132DB005C08091CB0484FDC7CFE5CFFF91EF918F
S1132DC0BF91AF919F918F917F916F915F914F913F
S1132DD03F912F910F910F900FBE0F901F90189558
S1132DE01F920F920FB60F9211240F931F932F93DC
S1132DF03F934F935F936F937F938F939F93AF937F
S1132E00BF93CF93DF93EF93FF938091CC0481FD25
S1132E1003C029DA8111C3C082E08093CC0480917D
S1132E20C5048195880FE4E4F4E2E81BF1092081EC
S1132E303181245434423695279536952795369515
S1132E402795822F869520FD02C090E001C090E86E
S1132E50890FE82FEF70F0E0EE0FFF1F282F082EE8
S1132E60000C330B2227330F221F3327E20FF31FEB
S1132E70DF01AA0FBB1FAA0FBB1FAA0FBB1FA85CB1
S1132E80BB4D1C969C9195FF8AC0EE0FFF1FEE0F61
S1132E90FF1FEE0FFF1FEC5BFB4D00E20693811159
S1132EA079C080913524843019F428D9E6D877C0C4
S1132EB0009146241091472480918B2490918C2476
S1132EC0C0913124D09132249E01200F311F8217EA
S1132ED0930718F48C010C1B1D0B8091892490918D
S1132EE08A24A80161EF73E28C0F9D1F3BD1C00FB0
S1132EF0D11FC0933124D09332240034110569F4D6
S1132F0080913324909134248C0F9D1F2091872429
S1132F10309188248217930780F0E1E8F4E2C287B5
S1132F20D3870684F785E02D309729F00995811120
S1132F3002C0C8D834C0D4D832C080918B249091B8
S1132F408C24C817D907F9F4E0918F24F0919024C8
S1132F50309711F4B7D823C00995811102C0B2D8B3
S1132F601EC02091332430913424809131249091D7
S1132F703224820F931F809333249093342410922D
S1132F80312410923224E4E4F4E202E0069300E2F5
S1132F90069305C0803811F4B9D801C0D5D9FF9182
S1132FA0EF91DF91CF91BF91AF919F918F917F91DD
S1132FB06F915F914F913F912F911F910F910F90BE
S1132FC00FBE0F901F90189587E08093A20078940D
S1132FD0EAE7F4E21082118212821382148281E001
S1132FE085830E947F050E943D0F0E947E010E94FE
S1132FF089016AD00E94620C0AE714E20F2EFBE7F3
S1133000EF2EF4E2FF2EF02DC8E4D0E08091792475
S1133010882329F10E94DB0A8111F8CFF894F80182
S11330208081811108C0D701E0E0EF5F8D91882392
S1133030E1F3E11102C07894E9CF8881F0E0E05037
S1133040F04E982F917F8081892B888388818160BD
S113305088837894889588818E7F8883D7CFF894E5
S1133060F8018081811108C0D701E0E0EF5F8D9104
S11330708823E1F3E11102C07894C8CF8881F0E09D
S1133080E050F04E817F9081892B88838881816014
S113309088837894889588818E7F8883B7CF0C94B1
S11330A0890108950C9494010895809179248823CA
S11330B019F07CDB0C94A801089581E080937924B5
S11330C008951092792408950C9443020895AA1B3C
S11330D0BB1B51E107C0AA1FBB1FA617B70710F0FF
S11330E0A61BB70B881F991F5A95A9F78095909531
S11330F0BC01CD010895A1E21A2EAA1BBB1BFD0140
S11331000DC0AA1FBB1FEE1FFF1FA217B307E407C2
S1133110F50720F0A21BB30BE40BF50B661F771F1A
S1133120881F991F1A9469F76095709580959095FA
S11331309B01AC01BD01CF010895EE0FFF1F059067
S1133140F491E02D0994A29FB001B39FC001A39F05
S1133150700D811D1124911DB29F700D811D1124CC
S1133160911D0895FB01DC0102C001900D924150B4
S10D31705040D8F70895F894FFCFFB
S113317A14000E060C040000000003021F000000E5
S113318A41544D454C20202000000000000000005E
S113319A0000000000000000312E30300101000060
S11331AA55534253000000000000000000000000D4
S11331BA8B077F0A890A69070000782050200000DB
S11331CA582054204020000009022000010100C0B8
S11331DA3209040000020806500007058102400073
S11331EA000705020240000012010002000000402C
S11331FAEB030324000101020301000000030000A1
S113320A00000000000000000000000000000000B0
S113321A0000000000004D53430041544D454C202A
S113322A41534600040309042241543435444258A4
S113323A204461746120466C617368220031323320
S10D324A31323331323331323300B4
S9030000FC
