:1000000004C100001FC100001DC100001BC1000091
:1000100019C1000017C1000015C1000013C1000084
:1000200011C100000FC100000DC100000BC1000094
:1000300009C1000007C1000005C1000003C10000A4
:1000400001C10000FFC00000FDC00000FBC00000B7
:10005000F9C00000F7C00000F5C00000F3C00000C8
:10006000F1C000000C94DB120C941A13EBC00000DA
:10007000E9C00000E7C00000E5C00000E3C00000E8
:10008000E1C00000DFC00000DDC00000DBC00000F8
:10009000D9C00000D7C00000D5C00000D3C0000008
:1000A000D1C00000CFC00000CDC00000CBC0000018
:1000B000C9C00000C7C00000C5C00000C3C0000028
:1000C000C1C00000BFC00000BDC00000BBC0000038
:1000D000B9C00000B7C00000B5C00000B3C0000048
:1000E000B1C00000AFC00000ADC00000ABC0000058
:1000F000A9C00000A7C00000A5C00000A3C0000068
:10010000A1C000009FC000009DC000009BC0000077
:1001100099C0000097C0000095C0000093C0000087
:1001200091C000008FC000008DC000008BC0000097
:1001300089C0000087C0000085C0000083C00000A7
:1001400081C000007FC000007DC000007BC00000B7
:1001500079C0000077C0000075C0000073C00000C7
:1001600071C000006FC000006DC000006BC00000D7
:1001700069C0000067C0000065C0000063C00000E7
:1001800061C000005FC000005DC000005BC00000F7
:1001900059C0000057C0000055C0000053C0000007
:1001A00051C000004FC000004DC000004BC0000017
:1001B00049C0000047C0000045C0000043C0000027
:1001C00041C000003FC000003DC000003BC0000037
:1001D00039C0000037C0000035C0000033C0000047
:1001E00031C000002FC000002DC000002BC0000057
:1001F00029C000000C9446100C94FD103C0B3F0BE2
:10020000420B450B480B4B0B4E0B11241FBECFEF7F
:10021000CDBFDFE2DEBF10E2A0E0B0E2E6E2F7E24F
:1002200002C005900D92AC3BB107D9F723E2ACEBCD
:10023000B0E201C01D92A833B207E1F70E94F111AC
:100240000C949113DDCEE0E0F6E081E0868382E05D
:10025000858384E0858380E1858380E2858380E4F3
:10026000858380E885830895E0E0F6E081E085837A
:1002700082E0858384E0858380E1858380E28583D5
:1002800080E4858380E88583089581E08093060675
:10029000089584E0809306060895E0E0F6E084E0A7
:1002A000858380E1858380E2858380E4858380E89F
:1002B0008583089580E180930606089580E1809308
:1002C0000506089580E280930606089580E28093F3
:1002D0000506089580E480930606089580E88093DB
:1002E00006060895009721F482E08093060608959B
:1002F000883E934019F482E08093050608950F9399
:100300001F93CF93DF93CDB7DEB72797CDBFDEBF67
:100310008FEF8093700080937100809372008093C0
:10032000730080937400809375008093760064E07E
:1003300081E490E00E94310A6CE170E082E00E946A
:10034000370A8A836DE170E082E00E94370A898370
:1003500089819A81019621F480E493E289839A83CA
:1003600089819A818B839C83E0E6F0E082838C8193
:1003700083838FB78E83F8949E81E0E5F0E08081DF
:10038000826080839FBF818181FFFDCF8FB78D8386
:10039000F8949D8100E510E0D80116968C9116978F
:1003A000897F16968C931697E0E6F0E080E88583C7
:1003B0008BEB868316968C911697846016968C9399
:1003C0008081816080839FBF61E080E490E00E9433
:1003D000310A8FB78F83F8949F81F80180818E7FD7
:1003E00080839FBF2796CDBFDEBFDF91CF911F9146
:1003F0000F910895CF93DF931F92CDB7DEB79FB7CC
:100400009983F8949981E82FF0E0E059FF4F6095C7
:100410008081682360839FBF0F90DF91CF91089503
:10042000CF93DF931F92CDB7DEB79FB79983F89430
:100430009981E82FF0E0E059FF4F8081682B6083BD
:100440009FBF0F90DF91CF910895CF93DF9300D09E
:10045000CDB7DEB7863011F060E001C068E1809171
:10046000510081FD2AC08FB78A83F8949A81E0E514
:10047000F0E08081826080839FBF818181FFFDCF1A
:100480008FB78983F8949981A0E5B0E016968C9196
:100490001697897F16968C931697E0E6F0E080E831
:1004A00085838BEB868316968C91169784601696BF
:1004B0008C938081816080839FBF636084E490E03F
:1004C000D0D760E480E096DF0F900F90DF91CF915E
:1004D0000895CF93DF93FC01709620E030E0C62FA3
:1004E000D0E0DE01022E02C0B595A7950A94E2F78E
:1004F000A0FD50832F5F3F4F31962830310589F79B
:1005000040FF0AC041FF03C0FC01658302C0FC013B
:100510006683FC01618302C0FC016283DF91CF919D
:1005200008958091D22181508093D221089580E056
:10053000089580E0089562EE71E280E00C944E121E
:1005400008951092D2211092DE211092DF21E4ED65
:10055000F1E281EA808380E2818312821382148235
:10056000158282E090E08683978310861186E2EE02
:10057000F1E280E092ECA1E0B0E080839183A2837D
:10058000B3831482158288E08683BF0180E00E94D5
:100590004E1280E00E943C12882329F09091D221D3
:1005A0009F5F9093D2210895FF920F931F93CF9353
:1005B000DF931F92CDB7DEB78091BF2081119EC01F
:1005C0000E940C0E882351F00091C0201091C12090
:1005D0000E94190E0817190759F490C00091C02005
:1005E0001091C1200E94140E0817190709F486C043
:1005F0008FB78983F89419810091C220E02FF0E031
:10060000EE0FFF1FED53FF4D80819181892B09F57E
:100610008091BC209091BD2001968093BC20909346
:10062000BD200E940C0E811107C08091BC209091CA
:10063000BD208436910558F00E940C0E882349F0A5
:100640008091BC209091BD208032934010F41FBF58
:1006500055C01092BC201092BD208091BE20811107
:1006600006C081E0011180E08093C22004C081E0D7
:10067000011180E0082F81E08093BF201FBF10E0B0
:10068000F801EE0FFF1FED53FF4DFF24F39480811F
:1006900091818034910509F4F12CFF2091F00E94A2
:1006A0000C0E882339F00E94190E8093C02090937D
:1006B000C1200BC00E94140E8093C0209093C120D3
:1006C00004C01092C0201092C120F801EE0FFF1F4D
:1006D000ED53FF4D20813181A801002456954795A7
:1006E0000794569547950794542F402D48535F4DD6
:1006F00005E813E06F2D81E80E94FD0E0F90DF9159
:10070000CF911F910F91FF900895811115C02091F5
:10071000C22081E090E0222311F080E090E0880F79
:10072000991FFC01ED53FF4D108211821092BE20E3
:100730001092BF2080E038CF089580E035CF089533
:100740000F931F938091E02181111FC02091DE2122
:100750003091DF218091DC219091DD21281739072C
:10076000A1F0862F2091DE213091DF212093DC2122
:100770003093DD2102EF13E02AE030E044ED51E256
:1007800060E00E94FD0E8093E0211F910F9108957B
:10079000CF93DF931F92CDB7DEB78FB78983F894DD
:1007A0002981662359F08091DE219091DF21482B29
:1007B000592B4093DE215093DF210CC08091DE2124
:1007C0009091DF2140955095482359234093DE2195
:1007D0005093DF212FBF62E880E0B2DF0F90DF91FE
:1007E000CF9108951092E0218091DE219091DF2138
:1007F00083788093DE219093DF21E4EDF1E2808520
:100800009185837880879187642F80E099CF0895C0
:100810008091D12181508093D1218091D1210E945A
:1008200042121092D0210895809128238823CCF47D
:1008300080768032F1F5809129238132E1F5809133
:100840002E2390912F230797C1F5E8E2F3E282EE81
:1008500091E28087918787E090E08287938781E0AB
:1008600008958076803259F580912923803219F0DD
:100870008232B9F026C080912E2390912F230797C2
:1008800011F5E8E2F3E28BE992E08487958782EE46
:1008900091E28087918787E090E08287938781E06B
:1008A000089560912A23617080E00E94461281E0E1
:1008B000089580E0089580E0089580E0089580E044
:1008C000089580E0089580E0089540E150E061E0FF
:1008D00080E05ECF089540E450E061E080E058CFD2
:1008E0000895CF93DF931F92CDB7DEB78FB789837B
:1008F000F89449812091492130914A21E0914B217E
:10090000F0E0EE0FFF1FE45BFE4D808191814FBF51
:10091000821B930B0F90DF91CF910895E2DF21E0CE
:10092000892B09F420E0822F08950F931F93CF9312
:10093000DF931F92CDB7DEB78FB78983F894998183
:1009400020914B2180914821811110C06091492153
:1009500070914A21022F10E0F801EE0FFF1FE45BB7
:10096000FE4D408151816417750718F49FBF80E0E8
:1009700028C01092492110924A2181E0211180E083
:1009800080934B2181E0809348219FBF80E0C6DFA8
:10099000882319F080E00E94D312A8010024569504
:1009A00047950794569547950794542F402D405BE3
:1009B0005E4D09E115E020E430E061E082E00E9454
:1009C000FD0E0F90DF91CF911F910F91089510921E
:1009D000D1211092BF201092BE201092C220E3ECD1
:1009E000F0E210821182128213821092C0201092C3
:1009F000C12080E0D9DD1092482110924B21ECE417
:100A0000F1E2108211821282138210924921109217
:100A10004A2180E08ADF882359F09091D1219F5F9D
:100A20009093D1219091D121913011F49093D021C4
:100A300008950F931F93811129C080914B21E1E00C
:100A40008111E0E0842F61157105A9F4F0E0002424
:100A5000F695E7950794F695E7950794FE2FE02D18
:100A6000AF01405B5E4D09E115E020E430E061E05C
:100A70000E94FD0E0BC0F0E0EE0FFF1FE45BFE4D89
:100A8000608371831092482180E04FDF1F910F91A6
:100A9000089580E043CF0895EF92FF921F93CF9384
:100AA000DF931F92CDB7DEB711E08091E821893046
:100AB00009F010E040E050E08FB78983F894A981F5
:100AC0002091492130914A2180914B2190E0FC01F5
:100AD000EE0FFF1FE45BFE4D60817181AFBF2617F3
:100AE000370730F08091D0218111E6CF90E021C00E
:100AF000FC010024F695E7950794F695E795079491
:100B0000FE2FE02DE20FF31FE05BFE4D80817A01A6
:100B1000E82A2F5F3F4F2093492130934A2180E0FC
:100B200004DF112321F05E2D442710E0C5CF8E2D68
:100B30009F2D0F90DF91CF911F91FF90EF9008951F
:100B400080E0AACF0895CF93DF931F92CDB7DEB791
:100B50008FB78983F89499818091C220E82FF0E0C3
:100B6000EE0FFF1FED53FF4D208131812034310501
:100B700089F44091BF2041110DC04091BE20411128
:100B800009C021E02093BE20811120E02093C220E3
:100B900020E030E09FBF80E490E0821B930B0F9039
:100BA000DF91CF910895CFDF21E0892B09F420E078
:100BB000822F089580E0F7CF0895FF920F931F933F
:100BC000CF93DF931F92CDB7DEB7F62E172F01E03C
:100BD0008091E821893009F000E080E0E4DF8111B4
:100BE00007C08091D0218111F8CF80E090E02DC026
:100BF0008FB78983F8942981E091C220F0E0DF016A
:100C0000AA0FBB1FAD53BF4D8D919C911197AC01A5
:100C10004F5F5F4F4D935C930024F695E7950794E3
:100C2000F695E7950794FE2FE02D8E0F9F1FFC0190
:100C3000E853FF4DF0822FBF002329F0F12E110F52
:100C4000110B00E0CACF81E090E00F90DF91CF91CF
:100C50001F910F91FF900895BC0180E0AECF0895E1
:100C6000E091EE21F091EF210190F081E02D2281C1
:100C700033812E0F3F1FFC014081E40FF11DE2176D
:100C8000F307B8F481818430B9F0861309C005C038
:100C900081818430A1F0861303C08E2F9F2F089589
:100CA0008081E80FF11DE217F30790F380E090E0F8
:100CB000089580E090E0089580E090E0089580E05D
:100CC00090E0089580912A238F77A8C70895909186
:100CD000F021992381F1E091EE21F091EF21019033
:100CE000F081E02D9481891740F5E093EC21F09399
:100CF000ED21228133812E0F3F1FE217F307F8F415
:100D00009181943061F49281981309C09381961374
:100D100006C0E093EC21F093ED2181E008959081ED
:100D2000E90FF11DE217F30758F3E093EC21F0937C
:100D3000ED2180E0089580E0089580E0089580E04E
:100D40000895EF92FF921F93CF93DF93C82F60E037
:100D5000BEDF182F882381F1A091EE21B091EF2101
:100D6000EC2FF0E0EE0FFF1F12968D919C911397E0
:100D7000E80FF91FE080F180D7011696ED91FC9104
:100D800017970995682F8C2FA2DF182F8823A1F0C1
:100D9000C091EC21D091ED2165E0CE0161DFEC0145
:100DA000892B21F08A810E940D10F6CFD70112966F
:100DB000ED91FC9113970995812FDF91CF911F91B0
:100DC000FF90EF9008951F93CF93DF93182F7FDF4D
:100DD000882339F1C091EC21D091ED2165E0CE015D
:100DE0003FDFEC01892B41F04C815D816B818A8171
:100DF0002AD78111F3CF15C0A091EE21B091EF2138
:100E0000E12FF0E0EE0FFF1F12968D919C9113974A
:100E1000E80FF91F0190F081E02D0190F081E02DA5
:100E20000995DF91CF911F91089574C60895CF93CE
:100E30008091F0218823C1F0E091EE21F091EF2123
:100E40000190F081E02D8481882371F0C0E08C2F27
:100E500078DFCF5FE091EE21F091EF210190F081FA
:100E6000E02D8481C81798F31092F02181E090E082
:100E70008093F4219093F521CF910895CF938091A1
:100E8000F021882349F1A091EE21B091EF21ED915D
:100E9000FC91119784818823F9F0C0E0EC2FF0E0F9
:100EA000EE0FFF1F12968D919C911397E80FF91F7B
:100EB0000190F081E02D0084F185E02D309709F05C
:100EC0000995CF5FA091EE21B091EF21ED91FC91BA
:100ED00011978481C81710F3CF9108950F931F9332
:100EE000CF93DF93E8E2F3E2128613861486158629
:100EF00016861786808188230CF05AC220912E23F3
:100F000030912F232115310509F057C24DC28F7141
:100F100009F0A3C090912923963079F0983009F414
:100F200092C091119AC02230310509F0C6C162E029
:100F300070E084EF91E280D645C280912A2390919F
:100F40002B23292F332722303105A9F024F4213017
:100F5000310541F0A9C123303105D9F12F303105D8
:100F600051F1A2C180911A2090911B20DC016C915B
:100F700070E062D659C0E0911A20F0911B202189BF
:100F8000821708F09AC19927880F991F880F991F17
:100F9000E0911C20F0911D20E80FF91F80819181C4
:100FA000FC016281738148D6E0913023F0913123B6
:100FB00082E0818339C080911E2090911F2000978C
:100FC00009F47BC1DC0112966D917C91139734D6A4
:100FD0002BC099278130910571F038F0029709F004
:100FE0006CC18EE990E22FE009C064E070E088EB0C
:100FF00090E222D619C08EEA90E229E0382FA0E8CC
:10100000B0E2E82FF92F819190E08D939D938E2F80
:10101000831B8217C0F3622F660F6E5F60937E2082
:1010200070E08EE790E208D6E8E2F3E286819781ED
:10103000228533858217930708F0C4C18093322339
:1010400090933323BFC12130310509F036C161E0EF
:1010500070E080EF91E2F0D5B5C18130E1F590917B
:1010600029239A30C1F52130310509F026C180913C
:10107000F021882309F421C1C0912C23D0912D2384
:101080000091EE211091EF21D801ED91FC91848126
:10109000C81708F012C160E08C2F19DE882309F40C
:1010A0000CC1CE019927880F991FD8011296ED9196
:1010B000FC911397E80FF91F0190F081E02D8681D4
:1010C0009781FC0109958093F22161E070E082EF45
:1010D00091E2B2D577C1823009F0EFC08091292327
:1010E0008111E4C02230310509F0E7C080912C2342
:1010F00032D690E08093EA219093EB2162E070E099
:101100008AEE91E299D55EC18F7109F083C090910A
:101110002923933009F4CCC018F49130A1F07AC09F
:10112000953019F0993039F175C080912E23909146
:101130002F23892B09F0C1C082E696E080933423E7
:10114000909335233FC180912E2390912F23892B9B
:1011500009F0B3C080912A2390912B23019709F0C5
:10116000ACC08091F4219091F5218D7F8093F42182
:101170009093F52127C180912E2390912F23892BC5
:1011800009F09BC04ED5882309F497C020912A23EB
:1011900030912B233327E0911A20F0911B20818975
:1011A00090E08217930708F488C041DE80912A23DB
:1011B00090912B238093F021882309F403C1992770
:1011C0008150904C880F991F880F991FE0911C2027
:1011D000F0911D20E80FF91FE093EE21F093EF212D
:1011E0000190F081E02D8481882309F4EBC0C0E0F8
:1011F00060E08C2FE8DD882309F45FC0CF5FE091C9
:10120000EE21F091EF210190F081E02D8481C8174B
:1012100078F3D8C08130E1F4909129239B30C1F458
:1012200080912E2390912F23892B09F046C0809125
:10123000F021882309F441C0E8E2F3E2C481D281BD
:101240008C2F7FDD8823C9F16D2F8C2FBCDD33C03F
:10125000823099F580912923813019F0833089F00B
:1012600029C080912E2390912F23892B31F58091D5
:101270002A2390912B23892B01F580912C2386D54D
:101280001AC080912E2390912F23892BB1F4809145
:101290002A2390912B23892B81F4C8E2D3E28C81FD
:1012A00073D68C81D6D607C080E005C080E003C02D
:1012B00080E001C080E0811186C0809128238F7179
:1012C000813071F58091F021882351F100912C2318
:1012D00010912D23C091EE21D091EF21E881F98169
:1012E00084810817E8F460E0802FF1DC8823C1F0E6
:1012F000F801FF27CF01880F991FEA81FB81E80FD2
:10130000F91FC081D181EE81FF810995682F802F5F
:10131000DEDC882329F0EC81FD810995811153C021
:10132000809128238F71823009F040C08091F02194
:101330008823B1F1A091EE21B091EF21ED91FC91C4
:1013400011978481882371F1C0E0EC2FF0E0EE0F5B
:10135000FF1F12968D919C911397E80FF91F008142
:101360001181D8011696ED91FC9117970995682F78
:101370008C2FADDC882339F1D8011496ED91FC91C6
:101380001597099581111FC0CF5FA091EE21B091F3
:10139000EF21ED91FC9111979481C917B0F213C020
:1013A00080E011C080E00FC080E00DC080E00BC085
:1013B000982F907609F081CFA7CE982F907609F0DC
:1013C0007CCFA5CD81E0DF91CF911F910F91089542
:1013D00043E050E061E080E096E07BD843E050E0FD
:1013E00062E080E096E075D843E050E064E080E0A1
:1013F00096E06FD843E050E068E080E096E069D87E
:1014000043E050E060E180E096E063D843E050E0E4
:1014100060E280E096E05DD843E050E060E480E088
:1014200096E057D843E050E060E880E096E051D87D
:1014300040E058E161E080E296E04BD840E058E1BE
:1014400062E080E296E045D840E058E164E080E266
:1014500096E03FD840E058E168E080E296E039C885
:1014600008951BBEFC0128ED24BF608308954091C0
:10147000CA01E62FF72F8093CA0184914093CA01D5
:101480000895CF93DF9300D0CDB7DEB7811126C08A
:10149000909120239923F9F090912323911101C079
:1014A000FFCF9FB79A83F8942A81E2E2F3E2918119
:1014B000915091832FBF0FC0909123239F3F09F438
:1014C000FFCF9FB79983F8942981E2E2F3E29181FB
:1014D0009F5F91832FBF8093202305C0909120238D
:1014E000992351F3F8CF0F900F90DF91CF9108958A
:1014F0000F93E8ECF4E080818F7D808380818F7D85
:101500008083E4EFF2E202E005931092F62210925B
:10151000F72200E2069300E40693ECEEF2E200E428
:101520000693E8E2F3E2148615861686178612867D
:1015300013861092DF220F9108950F9385E0809318
:10154000DF22E5EFF2E204E00593EDEEF2E204E0E3
:1015500005930F9108950F9383E08093DF221092FB
:10156000F6221092F722E4EFF2E202E006930F91E6
:101570000895E0913423F0913523309709F00995CF
:1015800008950F93CF93DF938091DF22833019F476
:10159000F0DFAEDF5EC08091DB229091DC22C09153
:1015A0003223D0913323C81BD90B71F52091DD2252
:1015B0003091DE22820F931F8093DD229093DE22F2
:1015C00020912E2330912F238217930721F08091B1
:1015D000F621882341F084E08093DF22ECEEF2E2F2
:1015E00002E0069336C0E0913623F091372330971E
:1015F00099F00995882381F01092DB221092DC2269
:10160000C0913223D0913323C034D10528F01092F9
:10161000F621C0E4D0E003C081E08093F621E0EE43
:10162000F2E2C68BD78B8091DB229091DC22209155
:10163000302330913123280F391F208F318FC80F6D
:10164000D91FC093DB22D093DC22E4EFF2E202E068
:101650000693DF91CF910F910895FC018181E82FCE
:10166000E7708E2F90E0FC013197E730F105C8F468
:10167000E250FF4F0C94821380E190E0089580E2E5
:1016800090E0089580E490E0089580E890E0089567
:1016900080E091E0089580E092E008958FEF93E07C
:1016A000089588E090E00895282F2F7030E0220FF1
:1016B000331F082E000C990B8827990F881F992734
:1016C000820F931F02979C01220F331F220F331F9B
:1016D000220F331F820F931F89589D4D08950F933A
:1016E000CF938091CC0480FF64C081E08093CC04D0
:1016F000ECEEF2E200E80693E4EFF2E200E8069393
:101700008093CA04ECEEF2E200E106938091DF22BE
:10171000882329F08350823008F42BDFE9DE8091A2
:10172000EE229091EF22089709F045C088E0EBE99E
:10173000F2E2A8E2B3E201900D928A95E1F7E8ECBB
:10174000F4E0808180628083808180628083C6DB58
:10175000C82F811103C0F1DEC1E02EC08091282383
:1017600088236CF41092DD221092DE221092DB228C
:101770001092DC2282E08093DF2203DF1DC0809183
:101780002E2390912F23892B11F4E5DE15C01092A2
:10179000DD221092DE221092DB221092DC2281E008
:1017A0008093DF22ECEEF2E202E0069300E2069381
:1017B00003C0C0E001C0C1E08C2FCF910F9108950C
:1017C0008F929F92AF92BF92DF92EF92FF920F9310
:1017D0001F93CF93DF93D82E67DF8C01BD2CBB1CEA
:1017E000BB24BB1CCD2DCF70D0E0CC0FDD1FCB0DAB
:1017F000D11DCE01880F991F880F991F880F991F3F
:101800009C0124513D4D7901C90127DF4C01BB20CA
:1018100009F479C0FE01EE0FFF1FEE0FFF1FEE0F60
:10182000FF1FE052FD4D22893389D80115968D9115
:101830009C911697820F931F15968D939C931697E4
:1018400013962D913C9114978217930709F445C084
:10185000281B390B2115B4E03B0738F02FEF33E09C
:10186000C901B40119D7281B390BF801808181FF08
:1018700009C0C901B40110D741E0892B09F040E04B
:10188000842F01C080E0D8019C9180FB91F99C934A
:10189000FE01EE0FFF1FEE0FFF1FEE0FFF1FE052C6
:1018A000FD4D128A138A2687378711962D913C9118
:1018B000129715968D919C911697820F931FCC0FBE
:1018C000DD1FCC0FDD1FCC0FDD1FC051DD4D888328
:1018D0009983F70102E00693E4C0D8018C9181FF5F
:1018E000CDC08D7F8C93CC0FDD1FCC0FDD1FCC0FB7
:1018F000DD1FC052DD4D1A8A1B8A1E861F86F70126
:1019000002E00693CEC0FE01EE0FFF1FEE0FFF1F99
:10191000EE0FFF1FE052FD4DA684B784D8018C91D5
:1019200082FF19C01196ED91FC91129715962D9199
:101930003C91169713968D919C911497B401ACD657
:10194000B0E4DB9EB001112469547E4DAC01CF019F
:10195000820F931FDDD6F801258136812A0D3B1DAC
:1019600025833683838194818217930768F4858366
:101970009683CC0FDD1FCC0FDD1FCC0FDD1FC052B7
:10198000DD4D8A899B897AC0FE01EE0FFF1FEE0FA5
:10199000FF1FEE0FFF1FE052FD4D428953894A158C
:1019A0005B0509F06BC02817390709F467C0AC0163
:1019B000421B530B9A01211554E0350750F02FEFCD
:1019C00033E0C901B40168D6D901A81BB90BCD0118
:1019D00007C0C901B40160D6F901E81BF90BCF01BA
:1019E000FE01EE0FFF1FEE0FFF1FEE0FFF1FE05275
:1019F000FD4D168617868815990500F5D8018C913E
:101A000084608C93B0E4DB9EC001112489549E4D08
:101A1000FE01EE0FFF1FEE0FFF1FEE0FFF1FE05145
:101A2000FD4D80839183CC0FDD1FCC0FDD1FCC0FCC
:101A3000DD1FC052DD4D8A8A9B8A1CC0F80141819E
:101A4000528125813681240F351FFE01EE0FFF1FC5
:101A5000EE0FFF1FEE0FFF1FE051FD4D208331837E
:101A6000CC0FDD1FCC0FDD1FCC0FDD1FC052DD4DB5
:101A70008A8B9B8BF70102E0069313C0D8018C91EF
:101A800080FF0FC08E7F8C931796ED91FC91189775
:101A9000309739F015966D917C9116974D2D80E019
:101AA0000995DF91CF911F910F91FF90EF90DF90FB
:101AB000BF90AF909F908F9008951F93CF93DF9327
:101AC0001F92CDB7DEB78FB78983F894198181E073
:101AD000D8DCEAECF4E080E4808380E28083E1EC0F
:101AE000F4E0808181608083A9ECB4E08C91826015
:101AF0008C93E8ECF4E08081806480838C91816039
:101B00008C938081806880831FBF0F90DF91CF917D
:101B10001F9108950F931F93CF93DF9300D0CDB7FC
:101B2000DEB700E610E0F801108280E30E94250293
:101B3000E0ECF4E080818064808381E0F8018083C0
:101B40008FB78A83F8941A81E0EEF2E21586158A3F
:101B5000158E15A215A615AAE7E7F2E280818E7F01
:101B60008083E0E8F2E280818E7F8083E9E8F2E220
:101B700080818E7F8083E2E9F2E280818E7F8083A4
:101B80006AE170E082E073DC8F3F19F08093FA0421
:101B900003C08FE18093FA046BE170E082E067DCC0
:101BA0008F3F19F08093FB0403C08FE18093FB0407
:101BB000E0ECF4E0808182608083808180688083B3
:101BC0008081806180838CEE92E28683978380811E
:101BD000806280838FEF8093C504E8ECF4E080811D
:101BE0008160808310922023809127238F3F09F406
:101BF000FFCF8FB78983F8949981E2E2F3E2858180
:101C00008F5F85839FBF59DF1FBF0F900F90DF91BC
:101C1000CF911F910F91089580E008958093C304A0
:101C200008958091C304089580911C2390911D23F1
:101C3000089580E090E00895E8E2F3E280879187DC
:101C4000628773870895282F2F7030E0220F331F8B
:101C5000082E000C990B8827990F881F9927820F4F
:101C6000931FFC01EE0FFF1FEE0FFF1FEE0FFF1F74
:101C7000E052FD4D2585207C09F069C0637061301C
:101C800011F018F404C020EC03C020E801C020E4E7
:101C900040385105E9F050F440325105A9F0403484
:101CA0005105A1F040315105D9F40CC0411532E085
:101CB000530791F04F3F33E0530781F041155140F6
:101CC00079F408C041E00DC042E00BC043E009C018
:101CD00044E007C045E005C046E003C047E001C05E
:101CE00040E0FC01EE0FFF1FEE0FFF1FEE0FFF1F86
:101CF000E052FD4D158636E03487242B2587FC0104
:101D0000EE0FFF1FEE0FFF1FEE0FFF1FE052FD4D06
:101D10002585207C203C69F4FC01EE0FFF1FEE0FAF
:101D2000FF1FEE0FFF1FE052FD4D25852770273066
:101D300081F0880F991F880F991F880F991FFC0148
:101D4000E052FD4D85858062858781E0089580E0C1
:101D5000089581E00895E82FEF70F0E0EE0FFF1F87
:101D6000082E000C990B8827990F881F9927E80FD8
:101D7000F91FEE0FFF1FEE0FFF1FEE0FFF1FE052C8
:101D8000FD4D858582FB882780F908950F93282FC4
:101D90002F7030E0A901440F551F282F082E000C8A
:101DA000330B2227330F221F3327240F351FA9019E
:101DB000440F551F440F551F440F551FFA01E4519E
:101DC000FD4D01E00693FA01E052FD4D958592FF2D
:101DD00011C0FA01E052FD4D95859B7F958764DC2B
:101DE000FC01808180FF06C08E7F80830780F085A4
:101DF000E02D099581E00F9108955F926F927F9297
:101E00008F929F92AF92BF92CF92DF92EF92FF920A
:101E10000F931F93CF93DF931F92CDB7DEB7782E2A
:101E2000662E4A01590140DC6C01572C551C552483
:101E3000551C872D8F70E82EF12CEE0CFF1CE50C45
:101E4000F11CF701EE0FFF1FEE0FFF1FEE0FFF1F3C
:101E5000E052FD4D8585807C09F481C0F701EE0FCD
:101E6000FF1FEE0FFF1FEE0FFF1FE052FD4D858598
:101E7000807C803C61F0F701EE0FFF1FEE0FFF1F2B
:101E8000EE0FFF1FE052FD4D858582FD6AC08FB7C2
:101E90008983F8948981F601908190FF03C08FBFF8
:101EA000512C60C0F6019081916090838FBF818238
:101EB0009282A382B48215821682078310876110F2
:101EC00006C091E0A114B10419F090E001C091E0C6
:101ED000F601808190FB81F98B7F8083552061F032
:101EE000F701EE0FFF1FEE0FFF1FEE0FFF1FE05277
:101EF000FD4D128A138A2EC0F701EE0FFF1FEE0F61
:101F0000FF1FEE0FFF1FE052FD4D8585807C803C5A
:101F1000A1F4C701880F991F880F991F880F991F77
:101F200084519D4D9ADBBC01C501B6D3892B29F0A4
:101F3000F60180818E7F808315C0F701EE0FFF1FB1
:101F4000EE0FFF1FEE0FFF1FE052FD4D16861786A6
:101F5000128A138A872D34DC5524539403C0512CE4
:101F600001C0512C852D0F90DF91CF911F910F91C2
:101F7000FF90EF90DF90CF90BF90AF909F908F90A9
:101F80007F906F905F900895FF920F931F93CF9370
:101F9000DF93182FF82EFF1CFF24FF1CC82FCF70D3
:101FA000D0E0CC0FDD1FCF0DD11D7EDBDC01FE01AB
:101FB000EE0FFF1FEE0FFF1FEE0FFF1FE451FD4D51
:101FC00002E005938C9180FF22C08E7F8C93179640
:101FD000ED91FC9118973097D1F0FF2059F0CC0F7C
:101FE000DD1FCC0FDD1FCC0FDD1FC052DD4D6A8918
:101FF0007B890AC0CC0FDD1FCC0FDD1FCC0FDD1F8E
:10200000C052DD4D6E857F85412F81E00995DF91BE
:10201000CF911F910F91FF900895CF93C82FB4DFF8
:10202000EC2FEF70F0E0EE0FFF1F8C2FCC0F990B11
:102030008827990F881F9927E80FF91FEE0FFF1FB8
:10204000EE0FFF1FEE0FFF1FE052FD4D1586CF91E3
:102050000895E82FEF70F0E0EE0FFF1F282F082EF5
:10206000000C330B2227330F221F3327E20FF31FFD
:10207000EE0FFF1FEE0FFF1FEE0FFF1FE052FD4D93
:1020800095859460958780DF81E008951F920F9277
:102090000FB60F9211240F932F933F934F935F939B
:1020A0006F937F938F939F93AF93BF93EF93FF9320
:1020B0008091CB0488233CF480E88093CA040E947A
:1020C0003E07D2D188C08091CB0482FF20C084E03B
:1020D0008093CA048091F42286FF7DC08091CC0455
:1020E00081FD79C0FCDA811176C08091DF228130D8
:1020F00011F431DA70C0843009F06DC0E5EFF2E21E
:1021000004E00593EDEEF2E204E0059364C08091F3
:10211000CB0481FF5BC082E08093CA048091EC22F3
:1021200086FF59C08091CC0481FD55C0D8DA811159
:1021300052C08091DF22823041F484E08093DF221C
:10214000ECEEF2E202E0069346C0833009F043C0B1
:10215000E5EFF2E204E00593EDEEF2E204E0059330
:102160003AC080E18093CA0481E00EDF81E80CDF91
:1021700082E00ADF82E808DF0E9417071092C3049A
:10218000E0EEF2E2158696E0948783E48587158A6F
:10219000948B858B8BE992E2808B918BA9D91BC0A4
:1021A0008091CB0486FF07C080E48093CA0480E05E
:1021B00068D954D110C08091CB0485FF0CC080E257
:1021C0008093CA0481E05DD94CD105C08091CB04D5
:1021D00084FDC7CFE5CFFF91EF91BF91AF919F9164
:1021E0008F917F916F915F914F913F912F910F91BF
:1021F0000F900FBE0F901F9018951F920F920FB661
:102200000F9211240F931F932F933F934F935F933C
:102210006F937F938F939F93AF93BF93CF93DF93EE
:10222000EF93FF938091CC0481FD03C058DA8111B4
:10223000C3C082E08093CC048091C5048195880F4F
:10224000ECEEF2E2E81BF109208131812C5E324292
:10225000369527953695279536952795822F86951D
:1022600020FD02C090E001C090E8890FE82FEF70D8
:10227000F0E0EE0FFF1F282F082E000C330B222753
:10228000330F221F3327E20FF31FDF01AA0FBB1FFB
:10229000AA0FBB1FAA0FBB1FA052BD4D1C969C913D
:1022A00095FF8AC0EE0FFF1FEE0FFF1FEE0FFF1FFF
:1022B000E451FD4D00E20693811179C08091DF2247
:1022C000843019F456D914D977C00091EE221091B8
:1022D000EF228091322390913323C091DB22D09161
:1022E000DC229E01200F311F8217930718F48C0106
:1022F0000C1B1D0B8091302390913123A8016BE9B9
:1023000072E28C0F9D1F04D2C00FD11FC093DB223D
:10231000D093DC220034110569F48091DD22909184
:10232000DE228C0F9D1F20912E2330912F238217A8
:10233000930780F0E8E2F3E2C287D3870684F7854B
:10234000E02D309729F00995811102C0F6D834C0EC
:1023500002D932C08091322390913323C817D90714
:10236000F9F4E0913623F0913723309711F4E5D852
:1023700023C00995811102C0E0D81EC02091DD2242
:102380003091DE228091DB229091DC22820F931F1C
:102390008093DD229093DE221092DB221092DC22C9
:1023A000ECEEF2E202E0069300E2069305C080380C
:1023B00011F4E7D801C004DAFF91EF91DF91CF91DA
:1023C000BF91AF919F918F917F916F915F914F914D
:1023D0003F912F911F910F910F900FBE0F901F9063
:1023E000189587E08093A2007894E2E2F3E21082ED
:1023F000118212821382148281E085830E947F0100
:102400000E94E8090E9423010E9434010E941507DE
:1024100022E233E243E253E2C8E4D0E0F894F90167
:102420008081811108C0DA01E0E0EF5F8D9188239F
:10243000E1F3E11102C07894F1CF8881F0E0E1503E
:10244000F04E817F9081892B888388818160888389
:102450007894889588818E7F8883E0CF0C943401AE
:1024600008950C944501089580912123882319F043
:10247000DBDB0C947201089591E09093212379D0D5
:1024800081E008951092212385C00895662319F0F4
:102490000C94490108950C944D010895FF920F93F7
:1024A0001F93CF93DF938B01FB018481823021F452
:1024B0006894FF24F3F801C0F12CF8018581813084
:1024C00031F0823039F4FF2DF062FF2E03C08F2DE2
:1024D0008063F82EF8018681863049F018F4853043
:1024E000A9F00DC0873039F0893069F008C0FF2DA0
:1024F000F160FF2E0BC08F2D8260F82E07C0EF2DEC
:10250000E360FE2E03C0FF2DF760FF2E60E183E045
:102510000E94FA01C0EAD8E0FD82F8018081918131
:10252000A281B381880F991FAA1FBB1F880F991F13
:10253000AA1FBB1F9C01AD01220F331F441F551F53
:1025400060E07CE68CED92E0BBD0DA01C901019637
:10255000A11DB11DB695A795979587959C01215012
:1025600031092E833F83DF91CF911F910F91FF900F
:10257000089560E183E00E94FA01E0E4F6E088E07B
:10258000818384E08283E0EAF8E08CE1848380E365
:102590008383089560E183E00E941002E0EAF8E09E
:1025A0001382148208958091A308882319F083E38D
:1025B0008093A30808951F920F920FB60F921124D3
:1025C0002F933F934F935F936F937F938F939F933B
:1025D000AF93BF93CF93EF93FF930E9462018091DB
:1025E000A108887121F00E9465040E946A01C091CF
:1025F000A0080E94DA05811105C00E946B040E94A8
:102600006E0104C08C2F90E00E942C060E9466018F
:10261000FF91EF91CF91BF91AF919F918F917F915A
:102620006F915F914F913F912F910F900FBE0F903F
:102630001F9018951F920F920FB60F9211242F938F
:102640003F934F935F936F937F938F939F93AF933A
:10265000BF93EF93FF930E944905882339F00E94AE
:102660005A010E94A0058093A00805C080E38093D2
:10267000A3080E945E01FF91EF91BF91AF919F91DE
:102680008F917F916F915F914F913F912F910F901B
:102690000FBE0F901F901895AA1BBB1B51E107C0DE
:1026A000AA1FBB1FA617B70710F0A61BB70B881FE2
:1026B000991F5A95A9F780959095BC01CD01089571
:1026C000A1E21A2EAA1BBB1BFD010DC0AA1FBB1F36
:1026D000EE1FFF1FA217B307E407F50720F0A21BA8
:1026E000B30BE40BF50B661F771F881F991F1A9415
:1026F00069F760957095809590959B01AC01BD013F
:10270000CF010895EE0FFF1F0590F491E02D09947D
:10271000FB01DC0102C001900D9241505040D8F7FE
:062720000895F894FFCFBC
:10272600000E060C0400E7040804970299029D03B4
:10273600A10291021404990200006C2020200000DE
:10274600282024201020062009024300020100C090
:1027560032090400000102020100052400100104F0
:10276600240202052406000105240103010705824F
:102776000340001009040100020A00000007058159
:10278600024000000705020240000000120100029C
:1027960002000040EB0304240001010200010003D3
:1027A6000000000000000000000000000000000023
:1027B600000000000000000000000000000043448C
:1027C60043205669727475616C20436F6D004154E5
:0C27D6004D454C2041534600040309040B
:00000001FF
